:1000000045C03CC268C067C066C065C064C063C00C
:1000100062C061C060C05FC05EC05DC05CC0040300
:1000200009041A037700770077002E006F00620042
:100030006400650076002E00610074001603440021
:10004000470038005300410051002D0049003200A4
:100050004300160350004500300046004B004F009F
:100060002D0032002E00300012011001FF000008A8
:10007000C016DC05000101020301090212000101A2
:1000800000800A09040000000000000011241FBEC7
:10009000CFE5D1E0DEBFCDBF14BE88E10FB6F89446
:1000A00081BD11BC0FBE80E187BB18BA10E0A0E68D
:1000B000B0E0E6EEFFE002C005900D92A236B10777
:1000C000D9F710E0A2E6B0E001C01D92AB3BB1074A
:1000D000E1F703D087C700C0189568E147E750E013
:1000E00020E030E0D901FA01162E5ED780918E0013
:1000F0008F3F09F047C08093770085E580938E009D
:1001000086E696E6A6E8B3E080937C0090937D00B7
:10011000A0937E00B0937F0082EC95EFA8E4B2E755
:100120008093780090937900A0937A00B0937B003D
:100130001092800010928100109282001092830031
:100140008CEA9DE0909385008093840080E092E0AB
:10015000909387008093860080E094E090938900DC
:100160008093880080E098E090938B0080938A00D1
:1001700081E090E090938D0080938C00D901FA018A
:10018000162E23D7809177008F3F09F081BFBA9A4E
:1001900028EB3BE08CE991E00197F1F721503040EA
:1001A000C9F7BA9888E190E02BE00FB6F894A895CB
:1001B00081BD0FBE21BD1092BA0076D676D3789459
:1001C000A8957AD371D6FCCFCF93DF93EC018091C1
:1001D0006200823391F0833320F4803308F43FC00F
:1001E00007C0843331F1843380F08533C1F528C0F2
:1001F0006630A8F1CE016FD402C0643080F168810E
:1002000079818A819B8176D52AC0643040F1E8E704
:10021000F0E088819981AA81BB81809378009093D6
:100220007900A0937A00B0937B0084E0A1E0B0E075
:1002300014C06430A0F084E0A5E0B0E0FE010DC081
:10024000623068F0E4E8F0E088819981909385005D
:100250008093840082E0ADE0B0E0182EB6D681E055
:1002600090E0DF91CF910895CF93DF93EC01EFE61B
:10027000F0E0F0939F00E0939E0089818633D0F4F4
:10028000803308F088C0843009F441C0853040F4E0
:100290008230C9F18330C8F5813009F0BBC02FC06E
:1002A000863109F44DC0873109F455C0853109F014
:1002B000B1C033C08E3309F48FC08F3380F48B33D9
:1002C00009F471C08C3320F48A3309F0A3C068C0EC
:1002D0008C3309F471C08D3309F09CC073C0813434
:1002E00009F483C0823420F48F3309F093C073C0C3
:1002F000803509F486C0813509F08CC088C08A81B8
:100300008A7F87BB07C086B386C088B384C08A81D2
:100310008A7F88BB80E090E082C080918C00882337
:1003200079F487B39A81929590738F7C892B87BBE0
:1003300088B3909598238C8182958073982B98BB75
:1003400086B382958F7090E0837090709093700068
:1003500080936F002EC0EC81E430A0F4F0E0EE0F4B
:10036000FF1FDF01A958BF4F8A819B81ED01988B48
:100370008F873F96DF01A050B04082E0E958FF4FE1
:10038000182E23D686E890E090939F0080939E00DD
:1003900088E090E044C0809362008FEF90E03FC01F
:1003A0008CE790E011C084E890E090939F008093E8
:1003B0009E0082E090E033C084E0A5E0B0E0182E1B
:1003C000F3D506C088E790E090939F0080939E004D
:1003D00084E090E024C053D489E690E090939F009D
:1003E00080939E0086E090E01AC08A81A7E1B0E089
:1003F000082EDFD58A818F3F09F48CCF80938E0041
:1004000089CF8A81882311F4C49801C0C49A86B325
:10041000807201C08FEF80936F0081E090E0DF91E8
:10042000CF910895A82FB92F80E090E041E050EAE5
:1004300060956F5F58F42D9138EF822797958795D7
:1004400010F0842795273F5FC8F3F3CF0895EADFC4
:100450008D939D930895A6E088279927AA9569F022
:100460000197E1F3B299FCCFB29BFECF81E09927CF
:10047000A6B3019611F0A570D9F70895CF93CFB721
:10048000CF93C395B29BE9F7B29B0BC0B29B09C057
:10049000B29B07C0B29B05C0B29B03C0B29B01C018
:1004A000D3C00F92DF93C0919D00DD27CC55DF4F65
:1004B000012EB29B03C0DF910F90E6CF2F930F93D5
:1004C0001F934F932FEF4F6F06B302FB20F95F93FB
:1004D0003F9350E03BE065C016B30126502952FD22
:1004E000C89556B3012702FB25F92F7306B3B1F067
:1004F0005027102712FB26F906B22230F0F000C078
:1005000016B3012702FB27F90126502906B2243031
:10051000E8F54F77206816B30000F6CF50274F7DDF
:10052000206206B2102F000000C006B3002650293A
:10053000102712FB26F906B2E2CF4F7B06B32064E8
:1005400000C0DACF01265029157006B269F14E7F3E
:100550002160012F16B328C0002650294D7F06B216
:100560002260102F29C0012650294B7F06B224603B
:10057000012F2DC016B301265029477F28600000A7
:1005800006B22EC04F7E06B3206130C0422706B3AC
:10059000499300265029102706B24FEF12FB20F98D
:1005A000297F16B379F2157059F10126502906B248
:1005B000012702FB21F9237F06B371F2002650299F
:1005C0003150D0F006B2102712FB22F9277E16B365
:1005D00051F201265029012702FB06B223F92F7C94
:1005E00049F2000006B3102712FB24F90026502917
:1005F00006B22F7939F270CF10E41ABF002717C066
:100600003B503195C31BD04010E41ABF0881033C16
:10061000F9F00B34E9F020919B001981110F1213AE
:10062000EDCF093651F10D3211F0013E39F700934B
:10063000A2003F915F914F911F910F912F91DF91F8
:100640000F90CAB7C6FD1DCFCF91CFBFCF911895E0
:100650002091A200222369F31091A000112321F51B
:10066000343022F13093A00020939C0010919D0023
:100670003BE0311B30939D0019C00091A000013078
:100680009CF40AE53091600034FD11C000936000D5
:10069000C0E9D0E010C0052710E000C021C0052748
:1006A00010E0C89508BB14C03AE501C032ED032E36
:1006B000C0E0D0E032E017B31560C29A08B317BBB0
:1006C00055E020E84FEF20FF052708BB2795179539
:1006D0001C3F28F700004552B0F720FF052727955B
:1006E00008BB17951C3FB8F629913A9561F70A7F28
:1006F0001091A100110F08BBC250D04011F010930F
:100700009B0010E41ABF046017B31A7F402F4A7F82
:1007100054E05A95F1F708BB17BB48BB8ACFEF925C
:10072000FF920F931F93CF93DF9380E8F82E10E092
:10073000C0E0D0E0012F0F0D01BF8DDE29E0843332
:1007400092070CF4102FF6942196C830D10591F73A
:10075000115011BF1F5F7C01C12FD0E0219610C046
:100760007ADE8453994097FF03C0909581959F4FFF
:100770008E159F0514F411B77C0181B78F5F81BF7F
:1007800081B790E0C817D9075CF711BFDF91CF910F
:100790001F910F91FF90EF900895F894C0DF789427
:1007A00081B7A0E0B0E0082E04D408958DE08A95CA
:1007B000F1F70895CF93DF93C2E3D0E0F7DF2197FD
:1007C0008FEFCF3FD80721F481E080938F0002C0E4
:1007D000B39BF4CFDF91CF91089510928F00BB9817
:1007E000B99AE4DFBB9AE2DF0895B99ABB98DEDFDD
:1007F000B998DCDF0895B99ABB98DCDFBB9AD6DFE5
:100800000895B998BB98D6DFBB9AD0DF0895B99800
:10081000BB98D0DF86B3BB9A90E0969587958170A0
:1008200090700895FF920F931F93F82E10E000E848
:10083000802F8F2111F4DFDF01C0E3DF1F5F18304D
:1008400011F00695F5CF00918F0010E0E0DF1092D7
:100850008F0090E0802B912B892B19F081E0809301
:100860008F001F910F91FF9008950F931F9300E049
:1008700010E0110FCCDF182B0F5F0830D1F7BBDF72
:10088000812F90E01F910F9108950F931F9300E027
:1008900010E0110FBCDF182B0F5F0830D1F7B1DF6C
:1008A000812F90E01F910F91089585B7826085BFD9
:1008B0008BB780648BBF08951F93CF93DF936091B4
:1008C000A000635067FDA3C080919D00C0EBD0E005
:1008D000C81BD10980919C008D3209F086C0683018
:1008E00009F093C083EC809390008AE580936000C8
:1008F000109264008881807621F0CE01B5DC282F2B
:1009000061C09A81109299008981882321F4109204
:100910009A0022E051C0853019F49093A1004BC099
:100920008630D1F58B81813019F488E690E004C0DF
:10093000823041F48AE790E090939F0080939E007C
:1009400022E126C0833019F5992341F48EE190E02D
:1009500090939F0080939E0024E01AC0913041F450
:1009600082E290E090939F0080939E002AE110C065
:10097000923019F48CE390E004C0933041F482E5A6
:1009800090E090939F0080939E0026E101C020E0BC
:1009900080E48093640016C0883021F421E083EA6B
:1009A00090E00CC0893019F49093A30004C08A3001
:1009B00011F421E001C020E089E990E090939F00CC
:1009C00080939E002F3F39F4888187FD2E8180E837
:1009D0008093640007C08F81882321F48E81821761
:1009E00008F4282F2093610010C08091640087FFD5
:1009F0000CC0CE01E9DB8F3F21F48EE180936000D3
:100A000004C0882311F0109261001092A000809120
:100A1000600084FF45C0809161008F3F09F440C0B1
:100A2000182F893008F018E0811B809361008091B5
:100A3000900098E8892780939000112321F120915C
:100A40009E0030919F008091640086FF0AC0912F24
:100A5000F901A1E9B0E084918D9331969150D9F7D5
:100A600008C0912FF901A1E9B0E081918D939150D7
:100A7000E1F7C90101961150810F911D1F5F9093FD
:100A80009F0080939E00612F81E990E0E0DC612F60
:100A90006C5F6C3019F08FEF8093610060936000A1
:100AA00094E186B3857031F49150D9F71092A1008A
:100AB00010929B0010E0992309F411E080916300EB
:100AC000811729F0112309F468DE10936300DF9188
:100AD000CF911F910895AF92BF92CF92DF92EF9284
:100AE000FF920F931F936C01FC0160810181802FA5
:100AF0008295869586958370962F990F990F9C778E
:100B0000892B1581B481A38192810F732091780084
:100B10003091790040917A0050917B00E0E0F9E259
:100B2000AE2EBE2EEE2EFE2E7F2F889420F4A20E27
:100B3000B31EE41EF51EF794E794B794A7940795A7
:100B40009795A795B79517957A9581F7990F001FF7
:100B5000AA1CBB1CEE1CFF1C8F5F6295669567701C
:100B60006C5F70E090E0E1D15E2F8894001FAA1CBA
:100B7000BB1CEE1CFF1CEE1F551FE81B590B20F47D
:100B8000E80F591F889401C00894FA9579F7F60187
:100B90000083A182B282E3821F910F91FF90EF90B8
:100BA000DF90CF90BF90AF900895CF92DF92EF92F9
:100BB000FF920F931F93A0916700A1503A2F369593
:100BC00036952091680024502295220F207E3F7197
:100BD000322B30936900209165003091660041E22C
:100BE0000024FF1B10F4F20F031E0794F79597954E
:100BF0008795779567954A95A9F7E8E4EE24FF2451
:100C00008701209178003091790040917A005091CD
:100C10007B00C72ED82EB92F8894661FCC1CDD1CF4
:100C2000BB1FFF1FEE1CFF1C001F111FE21AF30A5F
:100C3000040B150B30F4E20EF31E041F151F8894ED
:100C400001C00894EA9549F7611DC11CD11CB11D72
:100C5000F11D60936E00C0926D00D0926C00B09355
:100C60006B00A295AA0FAA0FA07CAF2BA0936A00DD
:100C70001F910F91FF90EF90DF90CF900895CF9349
:100C8000DF93ABDD80918F008823B9F480918E00D3
:100C9000880FC8DD87E0C6DDA0DD80918E00880F5B
:100CA0008160C0DDCFE6D0E0E0DD899380E0C4372D
:100CB000D807D1F7EADD8093740097DDDF91CF91FB
:100CC0000895CF93DF9389DD80918F00882371F49D
:100CD00080918E00880FA6DD87E0A4DDC9E6D0E014
:100CE0008991A0DD80E0CF36D807D1F77EDDDF9196
:100CF000CF910895AF92BF92CF92DF92EF92FF9281
:100D00000F931F93CF93DF935B016C0160937C0083
:100D100070937D0080937E0090937F0060918400AB
:100D20007091850061157105A1F1209180003091CD
:100D300081004091820050918300D601C501821B41
:100D4000930BA40BB50BB7FF07C0B095A09590957A
:100D500081959F4FAF4FBF4F7C018D0124E0EE0C7A
:100D6000FF1C001F111F2A95D1F7E81AF90A0A0B78
:100D70001B0B80E090E09A0140E050E0E8D06E1557
:100D80007F058007910728F0C601B5010EDF99DFC6
:100D90007FC0A0928000B0928100C0928200D09269
:100DA0008300B601769567957695679580E997E912
:100DB000E7D08B014BE0EE24FF24C0E8D5E002C071
:100DC0004830E9F04A30D9F0E42FF0E0C801BF0123
:100DD000D7D09B012F5F3F4F2138310580F4213060
:100DE000310521F020FF02C02F5F3F4FC901BF0135
:100DF0009CD08C179D0718F4F22EE42EEC01415084
:100E00004430F0F6EE2009F443C0D0936600C0935E
:100E10006500F0926700E0926800C601B501C5DE8A
:100E20001092BA00DADC80918F00882341F480911F
:100E30008E00880FF7DC89E8F5DC80E1F3DCD5DC97
:100E400080918F008823E9F43CDFC7DC80918F001C
:100E5000882341F480918E00880FE4DC89E8E2DC8D
:100E600080E0E0DCC2DCB9DC80918F00882341F4B3
:100E700080918E00880FD6DC87E8D4DC80E4D2DC59
:100E8000B4DC80918F00882319F481E08093BA004C
:100E90001ED0DF91CF911F910F91FF90EF90DF90C7
:100EA000CF90BF90AF900895B39903C01092BA004D
:100EB00008958091BA00882349F460917C00709174
:100EC0007D0080917E0090917F0014DF08958091D5
:100ED0008C00882349F180917C0090917D00A09145
:100EE0007E00B0917F00BC9ABD9A8091860090915F
:100EF0008700A817B90710F4C49808C0809188002B
:100F000090918900A817B90718F4C49AC598089554
:100F100080918A0090918B00A817B90718F4C498A3
:100F2000C59A0895C49AC59A08955527002480FF4C
:100F300002C0060E571F660F771F6115710521F05D
:100F400096958795009799F7952F802D0895FF27FF
:100F5000EE27BB27AA2760FF04C0A20FB31FE41F20
:100F6000F51F220F331F441F551F969587957795C0
:100F7000679589F70097760771F7CF01BD0108954E
:100F8000AA1BBB1B51E107C0AA1FBB1FA617B707AF
:100F900010F0A61BB70B881F991F5A95A9F78095CB
:100FA0009095BC01CD01089515D001921A94E1F7F6
:100FB0000895E199FECFBFBBAEBB0DBA11960FB637
:100FC000F894E29AE19A0FBE08950190F2DF1A9424
:100FD000E1F70895E199FECFBFBBAEBBE09A119651
:060FE0000DB20895FFCFE1
:020FE6005AFFB0
:00000001FF
