:100000003AC0AEC65DC05CC05BC05AC059C058C0E3
:1000100057C056C055C054C053C052C051C004034D
:1000200009041A037700770077002E006F00620042
:100030006400650076002E00610074001603440021
:10004000470038005300410051002D0049003200A4
:10005000430012011001FF000008C016DC0500017A
:100060000102030109021200010100800A090400D3
:1000700000000000000011241FBECFE5D2E0DEBF6B
:10008000CDBF14BE88E10FB6F89481BD11BC0FBE80
:1000900080E187BB18BA10E0A0E6B0E0EAEAF3E13D
:1000A00002C005900D92AE3AB107D9F710E0AEEA62
:1000B000B0E001C01D92AD3EB107E1F72BD073C98E
:1000C00015C09C01E199FECF3FBB2EBBE09A8DB3DA
:1000D00008959C01E199FECF1CBA3FBB2EBB6DBBBE
:1000E0000FB6F894E29AE19A0FBE089518958FE83A
:1000F00087B987EC86B93699FECF84B195B116B829
:1001000060E670E0DAD88054954667E070E000D988
:10011000CB010895E199FECF68E370E07FBB6EBB31
:10012000E09A8DB38F3F51F4CB01C89760E670E041
:1001300049E350E029E630E0A6D809C080E690E027
:100140006853704049E350E021E630E082D8809166
:1001500060008F3F09F081BF7724739480919700EE
:100160008093A9001092AA00B5D5BA9A88E893E1C5
:100170002CE931E0F9013197F1F70197D9F7BA98F5
:100180002CE088E190E00FB6F894A89581BD0FBEF1
:1001900021BD37D77894A8953BD79CD5FCCFDC01FF
:1001A00011962C911197622E87EB90E09093D200DC
:1001B0008093D1008FEF8093B700222319F48CE055
:1001C0009FE0EFC0213029F412968C918A7F87BB83
:1001D00048C1223011F486B340C1233011F488B3F2
:1001E0003CC1243051F480917100882309F039C159
:1001F00012968C918A7F88BB34C12F3009F4FFCFCF
:100200002531B9F4809171008823A9F487B312963F
:100210009C911297929590738F7C892B87BB88B3A2
:100220009095982314968C9182958073982B98BB07
:1002300002C0263139F486B382958F7090E08370C6
:100240009070AFC0273151F514966C9114971596A4
:100250008C911597882309F004C16430C0F470E0D4
:10026000660F771FFB01E05AFF4F12968D919C910C
:10027000139794878387655F7F4FCB0180509040B1
:10028000605A7F4F42E050E029E630E0FCD78BE631
:1002900090E09093D2008093D10043C0203279F453
:1002A00013968C91139714966C91E5D21092BF001F
:1002B0001092C0001092C1001092C20059C0822F4B
:1002C0008053863030F414968C918093AE008FEF7B
:1002D0000895293341F51496EC91E370F0E0EE0FA8
:1002E000FF1FEE0FFF1FDF01A958BF4F8D919D919A
:1002F0000D90BC91A02D8093B7009093B800A0936F
:10030000B900B093BA00E957FF4F80819181A28173
:10031000B3818093BB009093BC00A093BD00B093C9
:10032000BE0088E008952A3319F485E690E079C08C
:100330002B3339F489E690E09093D2008093D1007A
:1003400034C02C3351F487EB90E065E070E044E07A
:1003500050E021E630E07DD768C02D3319F481E606
:1003600090E05FC02F3311F463D20895203419F464
:100370008092B70074C0213489F4809198008093F2
:10038000B70012962C91222309F46DC02093980097
:10039000E199FECF1CBA88E390E01BC0223439F407
:1003A000A6DE9093B8008093B70082E008952334CE
:1003B000C9F4809197008093B70012962C91222364
:1003C00009F451C020939700E199FECF1CBA87E34E
:1003D00090E09FBB8EBB2DBB0FB6F894E29AE19ADA
:1003E0000FBE3DC02831C9F41496EC911497E37008
:1003F00012962C91E199FECF1CBAF0E0CF018D5EF0
:100400009F4F9FBB8EBB2DBB0FB6F894E29AE19A2B
:100410000FBEE05AFF4F238B02C0293141F483E71E
:1004200090E09093D2008093D10084E00895822FD1
:1004300080558230C0F482E28093B70080917100D1
:10044000882389F4203539F412968C91882311F48D
:10045000C49801C0C49A86B382728093B70081E0C9
:10046000089580E0089581E00895CF92DF92EF92A1
:10047000FF920F931F93CF93DF93EC01862D803370
:1004800009F05BC0663009F0C9C068813981862FE8
:10049000880F880F8C77932F9295969596959370E9
:1004A000892BDD80BC817B815A813F73F0E0A9E21A
:1004B0002F2F9A2F42ECE42E45EFF42E48E4042F20
:1004C00042E7142F4F2FEF2FCF2E889420F42E0DBC
:1004D0004F1DE01FC11EC794E79547952795379597
:1004E00057957795B795D7949A9581F7550F331F00
:1004F000221F441FEE1FCC1CEC2C62956695677082
:100500006C5F8F5F90E070E0D8D65F2F8894331FC8
:10051000221F441FEE1FEE1CFF1F551FF81B590B17
:1005200020F4F80F591F889401C00894AA9579F710
:10053000388329834A83EB833CC08133B1F568302B
:1005400009F06CC08091AE0083708093AE0090E0A3
:10055000880F991F880F991FFC01E958FF4F2881C8
:1005600039814A815B812083318342835383895E51
:100570009F4FBE0144E050E029E630E084D68091F0
:10058000AE0090E0880F991F880F991FFC01E95772
:10059000FF4F2C813D814E815F81208331834283D7
:1005A0005383895D9F4F249623C0823341F4643086
:1005B000A9F5688179818A819B817FD12FC083339E
:1005C00089F4643059F588819981AA81BB8180932F
:1005D000610090936200A0936300B093640081E097
:1005E00090E006C0843341F46430C1F485E090E0CB
:1005F000BE0144E050E00FC0853381F4623071F4F5
:100600008881998190936A008093690089E090E0E5
:10061000BE0142E050E029E630E035D681E0DF91CE
:10062000CF911F910F91FF90EF90DF90CF900895A1
:10063000EF92FF920F931F93CF93DF9380E8F82EF2
:1006400000E0C0E0D0E0102F1F0D11BF76D39C0159
:1006500089E0243338070CF0102FF6942196C83027
:10066000D10511F0012FEFCF115011BF1F5F79019C
:10067000C12FD0E0219610C060D38453994097FFDA
:1006800003C0909581959F4F8E159F0514F411B767
:100690007C0181B78F5F81BF81B790E0C817D90710
:1006A0005CF711BFDF91CF911F910F91FF90EF90F9
:1006B0000895F894BDDF789481B7E199FECF1CBA14
:1006C0001FBA1EBA8DBB0FB6F894E29AE19A0FBE1C
:1006D00008958824BB98B99A8DE0982F9A95F1F7E0
:1006E000BB9A8A95F1F70895B99ABB988DE0982F37
:1006F0009A95F1F7B9988A95F1F70895B99ABB9848
:1007000082E390E03DE0232F2A95F1F701972FEF48
:100710008F3F920719F48824839402C0B39BF3CFD0
:10072000BB9A8DE08A95F1F70895B998BB9882E35A
:1007300090E03DE0232F2A95F1F701972FEF8F3FAF
:10074000920719F48824839402C0B39BF3CFBB9A19
:100750008DE08A95F1F70895FF920F931F93F82E7D
:1007600000E010E8812F8F2111F4C8DF01C0DDDF28
:100770000F5F083011F01695F5CF482DB998BB984A
:1007800082E390E03DE0232F2A95F1F701972FEFC8
:100790008F3F920711F0B39BF6CF86B3BB9A82705E
:1007A000882E842A1F910F91FF900895582D40E0C4
:1007B00030E06DE0330FB998BB9882E390E0262FCC
:1007C0002A95F1F701972FEF8F3F920711F451E02F
:1007D00002C0B39BF4CF86B3BB9A81FD31604F5FFB
:1007E000483041F7852E832F0895982F809171000E
:1007F000882369F0BC9ABD9A892F90FF02C0C49AE1
:1008000001C0C49881FF02C0C59A0895C598089593
:100810001F93182F5EDF80919800880F9DDF88203E
:1008200011F080E003C0812F97DF81E01F910895D0
:10083000CF93DF9387E0ECDF8823A1F04ADF80913C
:100840009800880F816088DFC7EBD0E0AFDF899325
:1008500055DF80E0CC3BD807C9F7A8DFE7EBF0E035
:10086000858363DF41DF882011F486E001C080E0EA
:10087000DF91CF9108951F93162FCADF882311F0BF
:10088000812F6ADF31DF1F91089587E0C1DF882360
:1008900091F08091B10060DF8091B2005DDF8091C6
:1008A000B3005ADF8091B40057DF8091B50054DF68
:1008B0008091B60051DF18DF0895AF92BF92CF92BA
:1008C000DF92EF92FF920F931F93DF93CF93CDB7F9
:1008D000DEB728970FB6F894DEBF0FBECDBF5B0121
:1008E0006C0160936500709366008093670090933D
:1008F000680080916B0090916C00C816D90610F4C6
:10090000A0E013C080916D0090916E00C816D906CA
:1009100010F4A1E00AC080916F0090917000C81699
:10092000D90610F0A3E001C0A2E0B0E0FD01EE0F97
:10093000FF1FEE0FFF1FE05AFF4FE788F08C018D7D
:10094000128D27A130A541A552A52D833E834F834B
:100950005887E1E260E070E080E090E0AE18BF0808
:10096000C00AD10A889420F4620F731F841F951F58
:100970009795879577956795D794C794B794A794DB
:10098000EA9589F7EBE0CC0CDD1C661F771F881F0A
:10099000991FEA95C1F769837A838B839C83A05A58
:1009A000BF4F53968C9121DF80917100882341F1D4
:1009B0008091650090916600A0916700B0916800F9
:1009C000BC9ABD9A80916B0090916C00A817B907F2
:1009D00010F4C49808C080916D0090916E00A81723
:1009E000B90718F4C49AC5980BC080916F00909114
:1009F0007000A817B90710F4C49801C0C49AC59A2A
:100A00006091690070916A006115710509F498C0E0
:100A1000A090BF00B090C000C090C100D090C200B4
:100A200029813A814B815C812A193B094C095D0976
:100A300057FF07C050954095309521953F4F4F4F38
:100A40005F4F79018A01E4E0EE0CFF1C001F111FCB
:100A5000EA95D1F7E21AF30A040B150B80E090E057
:100A6000960140E050E03BD46E157F05800791076A
:100A700008F466C0D42CDA949D2D96959695852D14
:100A800084508295880F807E9F71982B9093B1003F
:100A900089819A81AB81BC8121E20024EE1810F497
:100AA000E20C031C0794E794B795A7959795879553
:100AB0002A95A9F7E92FFA2F1B2F2B2F3E2D265C05
:100AC000324008F03BC0409161005091620060915B
:100AD000630070916400382F80E090E0A0E0B0E007
:100AE00028E48894331FEE1FFF1F111FEE1C881F80
:100AF000991FAA1FBB1F841B950BA60BB70B30F4C5
:100B0000840F951FA61FB71F889401C008942A95CB
:100B100049F7311DE11DF11D111DE11C3093B60097
:100B2000E093B500F093B4001093B300D294DD0CC1
:100B3000DD0C30ECD322DE28D092B200A6DEB9C0A4
:100B40006B817C81769567957695679580E997E9C5
:100B5000DFD36B0190E8A92E95E0B92EEE2400E0DA
:100B6000EBE0F0E01E2FE830D9F0EA30C9F0C60122
:100B7000BF01CED39B012F5F3F4F2138310580F459
:100B80002130310521F020FF02C02F5F3F4FC90106
:100B9000BF0193D3AC018A159B0510F4022F02C04C
:100BA000A5011E2D3197E330F10519F05A01E12E10
:100BB000D9CF112309F47DC01A012801D02EDA946F
:100BC0008D2D8695869514501295110F107E8F717C
:100BD000812B8093B10089819A81AB81BC8121E214
:100BE0000024EE1810F4E40E051E0794E794B79560
:100BF000A795979587952A95A9F7E92FFA2F1B2F87
:100C00002B2F3E2D265C324008F053C040916100EE
:100C1000509162006091630070916400382F80E011
:100C200090E0A0E0B0E028E48894331FEE1FFF1F9F
:100C3000111FEE1C881F991FAA1FBB1F841B950B39
:100C4000A60BB70B30F4840F951FA61FB71F88940F
:100C500001C008942A9549F7311DE11DF11D111DB0
:100C6000E11C3093B600E093B500F093B40010930C
:100C7000B300D294DD0CDD0C80ECD822DE28D092BB
:100C8000B20029813A814B815C812093BF0030936F
:100C9000C0004093C1005093C20089E860E1EBDDE1
:100CA000882039F4F2DD89E860E0E5DD87E860E47A
:100CB000E2DD28960FB6F894DEBF0FBECDBFCF9110
:100CC000DF911F910F91FF90EF90DF90CF90BF9039
:100CD000AF900895B39B15C07720A9F01092BF0084
:100CE0001092C0001092C1001092C2006091650085
:100CF000709166008091670090916800DEDD782C2D
:100D00000895772473940895A82FB92F80E090E078
:100D100041E050EA609530E009C02D918227979517
:100D2000879510F084279527305EC8F36F5FA8F38E
:100D30000895EADF8D939D930895A6E0882799276B
:100D4000AA9569F00197E1F3B299FCCFB29BFECF6F
:100D500081E09927A6B3019611F0A570D9F70895FF
:100D6000CF93CFB7CF93C395B29BE9F7B29B0BC09C
:100D7000B29B09C0B29B07C0B29B05C0B29B03C027
:100D8000B29B01C0D3C00F92DF93C091D000DD278A
:100D9000C952DF4F012EB29B03C0DF910F90E6CF07
:100DA0002F930F931F934F932FEF4F6F06B302FBB9
:100DB00020F95F933F9350E03BE065C016B30126F6
:100DC000502952FDC89556B3012702FB25F92F7310
:100DD00006B3B1F05027102712FB26F906B22230D5
:100DE000F0F000C016B3012702FB27F901265029B5
:100DF00006B22430E8F54F77206816B30000F6CF2E
:100E000050274F7D206206B2102F000000C006B3AD
:100E100000265029102712FB26F906B2E2CF4F7B9D
:100E200006B3206400C0DACF01265029157006B23F
:100E300069F14E7F2160012F16B328C0002650298A
:100E40004D7F06B22260102F29C0012650294B7F0A
:100E500006B22460012F2DC016B301265029477F0A
:100E60002860000006B22EC04F7E06B3206130C05D
:100E7000422706B3499300265029102706B24FEFA8
:100E800012FB20F9297F16B379F2157059F101266A
:100E9000502906B2012702FB21F9237F06B371F224
:100EA000002650293150D0F006B2102712FB22F94B
:100EB000277E16B351F201265029012702FB06B204
:100EC00023F92F7C49F2000006B3102712FB24F906
:100ED0000026502906B22F7939F270CF10E41ABFDC
:100EE000002717C03B503195C31BD04010E41ABFF8
:100EF0000881033CF9F00B34E9F02091CE00198110
:100F0000110F1213EDCF093651F10D3211F0013EE0
:100F100039F70093D5003F915F914F911F910F9149
:100F20002F91DF910F90CAB7C6FD1DCFCF91CFBFD4
:100F3000CF9118952091D500222369F31091D30009
:100F4000112321F5343022F13093D3002093CF00C8
:100F50001091D0003BE0311B3093D00019C00091BC
:100F6000D30001309CF40AE53091AB0034FD11C090
:100F70000093AB00C3ECD0E010C0052710E000C028
:100F800021C0052710E0C89508BB14C03AE501C090
:100F900032ED032EC0E0D0E032E017B31560C29A04
:100FA00008B317BB55E020E84FEF20FF052708BB2B
:100FB000279517951C3F28F700004552B0F720FFF2
:100FC0000527279508BB17951C3FB8F629913A9538
:100FD00061F70A7F1091D400110F08BBC250D040B6
:100FE00011F01093CE0010E41ABF046017B31A7FFB
:100FF000402F4A7F54E05A95F1F708BB17BB48BB16
:101000008ACF85B7826085BF8BB780648BBF089518
:101010001F93CF93DF936091D300635067FDB1C0FE
:101020008091D000CCE0D0E0C81BD109C952DF4F7D
:101030008091CF008D3209F092C0683009F09FC0D6
:1010400083EC8093C3008AE58093AB001092B000DC
:101050008881807639F0CE01A2D8282F8F3F09F4FD
:101060006DC073C09A811092CC008981882321F4CD
:101070001092CD0022E05BC0853019F49093D4002B
:1010800055C0863009F043C08B81813019F482E568
:1010900090E004C0823041F484E690E09093D20066
:1010A0008093D10080E42CC0833061F5992349F40A
:1010B0008EE190E09093D2008093D10080E424E010
:1010C00023C0913049F482E290E09093D200809363
:1010D000D10080E42AE118C0923049F48CE390E01A
:1010E0009093D2008093D10080E426E10DC093302C
:1010F00049F489E990E09093D2008093D10080E098
:1011000022E102C080E420E08093B0001EC088305D
:1011100021F421E086ED90E00CC0893019F4909321
:10112000D60004C08A3011F421E001C020E08CEC2C
:1011300090E09093D2008093D10007C0888187FD12
:101140002E8180E88093B00006C08F81882319F437
:101150008E81821708F0822F8093AC0010C080919E
:10116000B00087FF0CC0CE0180D98F3F21F48EE103
:101170008093AB0004C0882311F01092AC00109251
:10118000D3008091AB0084FF49C08091AC008F3FB9
:1011900009F444C0182F893008F018E0811B8093AF
:1011A000AC008091C30098E889278093C300112385
:1011B00041F12091D1003091D2008091B00086FFA2
:1011C0000DC0A4ECB0E080E090E0F901E80FF91F59
:1011D000E491ED9301961817C1F708C0912FD9013A
:1011E000E4ECF0E08D9181939150E1F71150812F63
:1011F00090E01F5F0196820F931F9093D20080931F
:10120000D10084EC90E0612F94DD612F6C5F6C3035
:1012100019F08FEF8093AC006093AB0094E186B33C
:10122000857031F49150D9F71092D4001092CE000D
:1012300010E0992309F411E08091AF00811729F0A3
:10124000112309F436DA1093AF00DF91CF911F918B
:101250000895A0E0B0E0EEE2F9E078C07C01EB0197
:101260008A01690109C0CE012196F6010995F701AD
:1012700081937F010150104001151105A1F7CDB7F1
:10128000DEB7E8E07FC0A0E0B0E0E8E4F9E05EC0EF
:10129000EC017B018A01690109C0CE012196F701A9
:1012A00061917F01F601099501501040011511056A
:1012B000A1F7CDB7DEB7E8E065C05527002480FF71
:1012C00002C0060E571F660F771F6115710521F0CA
:1012D00096958795009799F7952F802D0895FF276C
:1012E000EE27BB27AA2760FF04C0A20FB31FE41F8D
:1012F000F51F220F331F441F551F9695879577952D
:10130000679589F70097760771F7CF01BD010895BA
:10131000AA1BBB1B51E107C0AA1FBB1FA617B7071B
:1013200010F0A61BB70B881F991F5A95A9F7809537
:101330009095BC01CD0108952F923F924F925F92FC
:101340006F927F928F929F92AF92BF92CF92DF92D5
:10135000EF92FF920F931F93CF93DF93CDB7DEB73A
:10136000CA1BDB0B0FB6F894DEBF0FBECDBF0994CE
:101370002A88398848885F846E847D848C849B8425
:10138000AA84B984C884DF80EE80FD800C811B8133
:10139000AA81B981CE0FD11D0FB6F894DEBF0FBE62
:0A13A000CDBFED010895F894FFCFD2
:1013AA00FFC2F5487266668603AC0D0002000400AF
:1013BA000801000001020300000000000000000014
:1013CA0000000000000000000020000000200000D3
:1013DA000020000000200030551203500045003064
:0E13EA000046004B004F002D0030005AFF005F
:00000001FF
