:1000000045C06EC268C067C066C065C064C063C0DA
:1000100062C061C060C05FC05EC05DC05CC0040300
:1000200009041A037700770077002E006F00620042
:100030006400650076002E00610074001603440021
:10004000470038005300410051002D0049003200A4
:100050004300160350004500300046004B004F009F
:100060002D0032002E00300012011001FF000008A8
:10007000C016DC05000101020301090212000101A2
:1000800000800A09040000000000000011241FBEC7
:10009000CFE5D1E0DEBFCDBF14BE88E10FB6F89446
:1000A00081BD11BC0FBE80E187BB18BA10E0A0E68D
:1000B000B0E0E0EEFFE002C005900D92AE37B10770
:1000C000D9F710E0AEE7B0E001C01D92AC3BB1073C
:1000D000E1F703D084C700C018954BE150E0DA0186
:1000E00060D7802DE0E6F0E0DA015B978F3F21F4E6
:1000F0008CE1182E6FD703C08CE1182E5AD780914F
:1001000060008F3F09F081BF77247394F1D6BA9ACB
:1001100028E833E18CE991E00197F1F72150304074
:10012000C9F7BA9888E190E02CE00FB6F894A8954A
:1001300081BD0FBE21BDCCD37894A895D0D3D8D69D
:10014000FCCFCF92DF92EF92FF920F931F93CF934A
:10015000DF93EC01862D803309F056C0663009F03C
:100160009AC068810981802F8295869586958370D3
:10017000962F990F990F9C77892B1D81BC81AB819C
:100180009A810F7322EC35EF48E452E7E0E0F9E2A0
:10019000CE2EDE2EEE2EFE2E7F2F889420F4C20E61
:1001A000D31EE41EF51EF794E794D794C7940795E1
:1001B0009795A795B79517957A9581F7990F001F91
:1001C000CC1CDD1CEE1CFF1C8F5F62956695677072
:1001D0006C5F70E090E0A6D65E2F8894001FCC1C68
:1001E000DD1CEE1CFF1CEE1F551FE81B590B20F4F5
:1001F000E80F591F889401C00894FA9579F708838D
:10020000C982DA82EB8218C0813391F4683009F038
:1002100042C0A9E6B0E0FE0188E001900D92815055
:10022000E1F788E0A9E0B0E0FE01182ED3D633C094
:10023000823341F4643079F5688179818A819B81C8
:1002400020D529C0833389F4643029F588819981C8
:10025000AA81BB818093610090936200A0936300A8
:10026000B0936400A1E0B0E013C0843329F464309B
:1002700091F4A5E0B0E00CC0853369F4623059F424
:10028000888199819093720080937100A1E1B0E020
:10029000FE01162E9FD681E090E0DF91CF911F9155
:1002A0000F91FF90EF90DF90CF900895CF93DF9361
:1002B000EC012981622E86E890E090939D00809366
:1002C0009C008FEF80938600222319F48BE09FE03F
:1002D0003AC0213021F48A818A7F87BBCDC0223089
:1002E00011F486B3C6C0233011F488B3C2C02430E1
:1002F00049F480917900882309F0BEC08A818A7F01
:1003000088BBBAC02F3009F4FFCF2531A1F480910A
:100310007900882391F487B39A81929590738F7CAA
:10032000892B87BB88B3909598238C8182958073A5
:10033000982B98BB02C0263159F486B382958F70F2
:1003400090E08370907090938700809386004DC0FA
:100350002731F1F4EC818D81882309F08DC0E430E0
:10036000A0F4F0E0EE0FFF1FDF01A05ABF4F8A811B
:100370009B81ED019C8B8B8B7396DF01A050B0406D
:1003800082E0E05AFF4F182E25D683E790E019C08F
:10039000203261F46C818B816AD41092B800109283
:1003A000B9001092BA001092BB003EC0822F805359
:1003B000863018F48FEF90E064C0293349F489E661
:1003C00090E090939D0080939C0088E090E059C05D
:1003D0002A3319F485E690E019C02B3349F481E7FC
:1003E00090E090939D0080939C0082E090E049C053
:1003F0002C3341F484E0E6E8F0E0A5E0B0E0182E0C
:10040000D8D508C02D3349F481E690E090939D0043
:1004100080939C0084E090E034C02F3319F4F1D332
:1004200090E02FC0203419F48092860028C0213437
:1004300059F48A818F3F11F080937B008A81ABE170
:10044000B0E0082EBBD518C0822F80558230B8F49A
:1004500082E28093860080917900882381F42035A0
:1004600031F48A81882311F4C49801C0C49A86B3F8
:1004700082728093860003C080E090E002C081E039
:1004800090E0DF91CF910895A82FB92F80E090E000
:1004900041E050EA60956F5F58F42D9138EF822764
:1004A0009795879510F0842795273F5FC8F3F3CF82
:1004B0000895EADF8D939D930895A6E088279927F4
:1004C000AA9569F00197E1F3B299FCCFB29BFECFF8
:1004D00081E09927A6B3019611F0A570D9F7089588
:1004E000CF93CFB7CF93C395B29BE9F7B29B0BC025
:1004F000B29B09C0B29B07C0B29B05C0B29B03C0B0
:10050000B29B01C0D3C00F92DF93C0919B00DD2747
:10051000CE55DF4F012EB29B03C0DF910F90E6CF87
:100520002F930F931F934F932FEF4F6F06B302FB41
:1005300020F95F933F9350E03BE065C016B301267E
:10054000502952FDC89556B3012702FB25F92F7398
:1005500006B3B1F05027102712FB26F906B222305D
:10056000F0F000C016B3012702FB27F9012650293D
:1005700006B22430E8F54F77206816B30000F6CFB6
:1005800050274F7D206206B2102F000000C006B336
:1005900000265029102712FB26F906B2E2CF4F7B26
:1005A00006B3206400C0DACF01265029157006B2C8
:1005B00069F14E7F2160012F16B328C00026502913
:1005C0004D7F06B22260102F29C0012650294B7F93
:1005D00006B22460012F2DC016B301265029477F93
:1005E0002860000006B22EC04F7E06B3206130C0E6
:1005F000422706B3499300265029102706B24FEF31
:1006000012FB20F9297F16B379F2157059F10126F2
:10061000502906B2012702FB21F9237F06B371F2AC
:10062000002650293150D0F006B2102712FB22F9D3
:10063000277E16B351F201265029012702FB06B28C
:1006400023F92F7C49F2000006B3102712FB24F98E
:100650000026502906B22F7939F270CF10E41ABF64
:10066000002717C03B503195C31BD04010E41ABF80
:100670000881033CF9F00B34E9F0209199001981CD
:10068000110F1213EDCF093651F10D3211F0013E69
:1006900039F70093A0003F915F914F911F910F9107
:1006A0002F91DF910F90CAB7C6FD1DCFCF91CFBF5D
:1006B000CF9118952091A000222369F310919E00FC
:1006C000112321F5343022F130939E0020939A00BB
:1006D00010919B003BE0311B30939B0019C00091AF
:1006E0009E0001309CF40AE530917C0034FD11C07D
:1006F00000937C00CEE8D0E010C0052710E000C0D9
:1007000021C0052710E0C89508BB14C03AE501C018
:1007100032ED032EC0E0D0E032E017B31560C29A8C
:1007200008B317BB55E020E84FEF20FF052708BBB3
:10073000279517951C3F28F700004552B0F720FF7A
:100740000527279508BB17951C3FB8F629913A95C0
:1007500061F70A7F10919F00110F08BBC250D04073
:1007600011F01093990010E41ABF046017B31A7FB8
:10077000402F4A7F54E05A95F1F708BB17BB48BB9E
:100780008ACFEF92FF920F931F93CF93DF9380E86E
:10079000F82E10E0C0E0D0E0012F0F0D01BF8DDE7C
:1007A00029E0843392070CF4102FF6942196C83078
:1007B000D10591F7115011BF1F5F7C01C12FD0E00F
:1007C000219610C07ADE8453994097FF03C090951C
:1007D00081959F4F8E159F0514F411B77C0181B749
:1007E0008F5F81BF81B790E0C817D9075CF711BF51
:1007F000DF91CF911F910F91FF90EF900895F894A2
:10080000C0DF789481B7A0E0B0E0082ED7D3089578
:100810008DE08A95F1F70895CF93DF93C2E3D0E09E
:10082000F7DF21978FEFCF3FD80719F488248394FF
:1008300002C0B39BF5CFDF91CF9108958824BB9878
:10084000B99AE6DFBB9AE4DF0895B99ABB98E0DF76
:10085000B998DEDF0895B99ABB98DEDFBB9AD8DF7E
:100860000895B998BB98D8DFBB9AD2DF0895B9989C
:10087000BB98D2DF86B3BB9A827090E00895FF9256
:100880000F931F93F82E00E010E8812F8F2111F4B1
:10089000E2DF01C0E6DF0F5F083011F01695F5CFFB
:1008A000182DE5DF882E812A1F910F91FF90089562
:1008B0000F931F9300E010E0110FD9DF8111116039
:1008C0000F5F0830C9F7812F90E01F910F910895B5
:1008D00085B7826085BF8BB780648BBF08951F93F7
:1008E000CF93DF9360919E00635067FDA3C080911A
:1008F0009B00CEEAD0E0C81BD10980919A008D32CE
:1009000009F086C0683009F093C083EC80938E00B4
:100910008AE580937C0010927F008881807621F0A8
:10092000CE01C4DC282F61C09A8110929700898182
:10093000882321F41092980022E051C0853019F4E8
:1009400090939F004BC08630D1F58B81813019F494
:1009500088E690E004C0823041F48AE790E090930A
:100960009D0080939C0022E126C0833019F59923D5
:1009700041F48EE190E090939D0080939C0024E0F0
:100980001AC0913041F482E290E090939D008093F0
:100990009C002AE110C0923019F48CE390E004C06E
:1009A000933041F482E590E090939D0080939C0009
:1009B00026E101C020E080E480937F0016C08830EB
:1009C00021F421E081EA90E00CC0893019F4909381
:1009D000A10004C08A3011F421E001C020E087E9C1
:1009E00090E090939D0080939C002F3F39F4888184
:1009F00087FD2E8180E880937F0007C08F81882348
:100A000021F48E81821708F4282F20937D0010C0D6
:100A100080917F0087FF0CC0CE0193DB8F3F21F4D4
:100A20008EE180937C0004C0882311F010927D0039
:100A300010929E0080917C0084FF45C080917D00D3
:100A40008F3F09F440C0182F893008F018E0811B4F
:100A500080937D0080918E0098E8892780938E0096
:100A6000112321F120919C0030919D0080917F0005
:100A700086FF0AC0912FF901AFE8B0E084918D9311
:100A800031969150D9F708C0912FF901AFE8B0E045
:100A900081918D939150E1F7C90101961150810F19
:100AA000911D1F5F90939D0080939C00612F8FE8A4
:100AB00090E0FFDC612F6C5F6C3019F08FEF80935A
:100AC0007D0060937C0094E186B3857031F4915091
:100AD000D9F710929F001092990010E0992309F421
:100AE00011E080917E00811729F0112309F487DE3F
:100AF00010937E00DF91CF911F910895CF92DF92E6
:100B0000EF92FF920F931F93F42DF1503F2F3695E4
:100B10003695252D24502295220F207E3F71322BB1
:100B20003093800021E27B018C010024EE1B10F445
:100B3000E20D031C0794E79517950795F794E79442
:100B40002A95A9F7712F412F5E2F465C524018F06D
:100B500080E090E03DC068E420E030E040E050E01C
:100B60008091610090916200A0916300B091640057
:100B7000CF2CD02E8894EE1CCC1CDD1C771FEE1FD2
:100B8000221F331F441F551F281B390B4A0B5B0BB9
:100B900030F4280F391F4A1F5B1F889401C0089446
:100BA0006A9549F7E11CC11CD11C711DE11DE09241
:100BB0008500C0928400D092830070938200F295E9
:100BC000FF0FFF0FF07CFE2BF093810081E090E09F
:100BD0001F910F91FF90EF90DF90CF9008951F939A
:100BE000182F2CDE80917B00880F49DE882019F0B9
:100BF00080E090E004C0812F42DE81E090E01F9110
:100C00000895CF93DF9387E0EADF882399F016DE1B
:100C100080917B00880F816032DEC6E8D0E048DE3C
:100C2000899319DE80E0CB38D807C9F741DE80937D
:100C30008B0017DE0ADE882019F080E090E002C009
:100C400086E090E0DF91CF910895CF93DF9387E026
:100C5000C6DF882341F0C0E8D0E0899110DE80E053
:100C6000C638D807D1F7F1DDDF91CF9108951F93F2
:100C7000162FB5DF882311F0812F01DEE6DD1F91ED
:100C80000895AF92BF92CF92DF92EF92FF920F93AF
:100C90001F93CF93DF93CDB7DEB766970FB6F89467
:100CA000DEBF0FBECDBF6B8B7C8B8D8B9E8B60931D
:100CB0006500709366008093670090936800809150
:100CC0007900882311F1BC9ABD9A2D893E898091C3
:100CD0007300909174002817390710F4C49808C065
:100CE00080917500909176002817390718F4C49AFE
:100CF000C5980BC08091770090917800281739072C
:100D000010F4C49801C0C49AC59AA0906900B0902C
:100D10006A00C0906B00D0906C00A982BA82CB822E
:100D2000DC82C0906D00D0906E00E0906F00F0907B
:100D30007000CD82DE82EF82F88661E2AA24BB24B5
:100D40006501EB88FC880D891E8929813A814B81D8
:100D50005C818D819E81AF81B885E21AF30A040B14
:100D6000150B889420F4A80EB91ECA1EDB1ED7945A
:100D7000C794B794A79417950795F794E7946A9545
:100D800089F76BE0000F111FAA1CBB1CCC1CDD1CDB
:100D90006A95C1F7A986BA86CB86DC866091710018
:100DA0007091720061157105B1F12091B800309118
:100DB000B9004091BA005091BB00D601C501821B19
:100DC000930BA40BB50BB7FF07C0B095A0959095FA
:100DD00081959F4FAF4FBF4F7C018D0124E0EE0CFA
:100DE000FF1C001F111F2A95D1F7E81AF90A0A0BF8
:100DF0001B0B80E090E09A0140E050E0A5D06E151A
:100E00007F058007910738F069857A858B859C85F9
:100E100075DE1BDF5CC06B857C8576956795769566
:100E2000679580E997E9A9D08B01A0E8B5E0BE8776
:100E3000AD87FF24EE244BE002C0483001F14A3078
:100E4000F1F0E42FF0E0C801BF0197D09B012F5FC4
:100E50003F4F2138310598F42130310521F020FF32
:100E600002C02F5F3F4FC901BF015CD0ED85FE85F9
:100E70008E179F0720F4F22EE42E9E878D87415017
:100E80004430D8F6EE2019F12D843E844F2C5E2C90
:100E900069857A858B859C8531DE8823C1F0A9849C
:100EA000BA84CB84DC84A092B800B092B900C0921E
:100EB000BA00D092BB0060E189E8D9DE882039F41D
:100EC000C4DE60E089E8D3DE60E487E8D0DE6696C1
:100ED0000FB6F894DEBF0FBECDBFDF91CF911F914B
:100EE0000F91FF90EF90DF90CF90BF90AF9008955B
:100EF000B39B15C07720A9F01092B8001092B900EA
:100F00001092BA001092BB0060916500709166006B
:100F10008091670090916800B4DE782C0895772462
:100F2000739408955527002480FF02C0060E571FB2
:100F3000660F771F6115710521F0969587950097CB
:100F400099F7952F802D0895FF27EE27BB27AA2715
:100F500060FF04C0A20FB31FE41FF51F220F331F51
:100F6000441F551F969587957795679589F7009744
:100F7000760771F7CF01BD010895AA1BBB1B51E194
:100F800007C0AA1FBB1FA617B70710F0A61BB70BF9
:100F9000881F991F5A95A9F780959095BC01CD019E
:100FA0000895E199FECFBFBBAEBBE09A11960DB29A
:100FB0000895F7DF01921A94E1F70895E199FECFC1
:100FC000BFBBAEBB0DBA11960FB6F894E29AE19A88
:100FD0000FBE08950190F2DF1A94E1F70895FFCF54
:100FE000FFC2F5487266668603000000000000201C
:0E0FF00000AC0D0002000400080100555AFF7D
:00000001FF
