:100000003DC0A3C760C05FC05EC05DC05CC05BC0D8
:100010005AC059C058C057C056C055C054C007C276
:10002000C0000000040309041A037700770077007A
:100030002E006F0062006400650076002E006100F3
:10004000740016034400470038005300410051007B
:100050002D0049003200430012011001FF0000088A
:10006000C016DC05000101020301090212000101B2
:1000700000800A09040000000000000011241FBED7
:10008000CFE5D2E0DEBFCDBF14BE88E10FB6F89455
:1000900081BD11BC0FBE80E187BB18BA10E0A0E69D
:1000A000B0E0E2EDF2E102C005900D92A43BB10791
:1000B000D9F710E0A4EBB0E001C01D92AA3FB10750
:1000C000E1F70ED004C900C018958FE887B987EC16
:1000D00086B93699FECF24B135B116B8C901089555
:1000E0008EE390E0D2D88F3F41F480E690E060E06C
:1000F00070E04FE350E0D1D807C080E690E060E0C8
:1001000070E04FE350E0B1D8809160008F3F09F07C
:1001100081BF81E08093C200809197008093AF00FF
:100120001092B0006AD588EE93E02CE931E0F90135
:100130003197F1F70197D9F7BA9A80EA9FE02CE955
:1001400031E0F9013197F1F70197D9F7BA982CE02E
:1001500088E190E00FB6F894A89581BD0FBE21BD4F
:100160009FD57894A895A3D548D5FCCFFF920F933F
:100170001F93CF93DF93EC0129812093B50083EC8B
:1001800090E09093DF008093DE008FEF8093C300B8
:10019000222319F48FE09FE037C0213021F48A81B7
:1001A0008A7F87BB55C1223011F486B34EC12330FC
:1001B00011F488B34AC1243049F480917100882336
:1001C00009F046C18A818A7F88BB42C12F3009F479
:1001D000FFCF2531F9F480917100882379F487B33A
:1001E0009A81929590738F7C892B87BB88B3909569
:1001F00098238C8182958073982B98BB86B38295C7
:100200008F7090E0837090709093C4008093C300CF
:1002100082E021C1263191F3273111F56C818D8166
:10022000882309F015C16430A0F470E0660F771FD1
:10023000FB01E05AFF4F8A819B8194878387655F2A
:100240007F4FCB01805A9F4F6050704042E050E09A
:1002500024D88BE690E09093DF008093DE003EC0D0
:10026000203261F48B816C8151D31092CC001092BA
:10027000CD001092CE001092CF0060C0822F80532C
:10028000863028F48C818093B4008FEFE4C029334A
:1002900039F5EC81E370F0E0EE0FFF1FEE0FFF1F6A
:1002A000DF01A958BF4F8D919D910D90BC91A02D5C
:1002B0008093C3009093C400A093C500B093C60080
:1002C000E957FF4F80819181A281B3818093C7005C
:1002D0009093C800A093C900B093CA0088E0BBC047
:1002E0002A3319F485E690E095C02B3339F489E67A
:1002F00090E09093DF008093DE008ACF2C3341F4AE
:1003000083EC90E065E070E044E050E0AED786C05A
:100310002D3319F481E690E07DC02F3369F48CEB26
:1003200090E09093DF008093DE008C81882311F4AD
:1003300080919D00C8D28FC0203419F48091CB00E9
:1003400084C0213469F480919E008093C3006A8147
:10035000662309F47FC060939E008EE390E012C094
:10036000223411F4B2DE50CF233471F4809197001F
:100370008093C3006A81662309F46CC06093970080
:1003800087E390E093D766C0243481F56A816623C1
:1003900079F060939C008CE390E088D76B81609348
:1003A0009D008DE390E082D781E08093C20025D448
:1003B0006C817D816115710589F08B81882339F409
:1003C000709399006093980088E390E006C0709362
:1003D0009B0060939A008AE390E076D788E990E0EA
:1003E0009093DF008093DE0086E035C0283171F401
:1003F0000C810370FA8010E0C8018D5E9F4F6F2D55
:1004000055D7005A1F4FF801F38A02C0293141F431
:1004100083E790E09093DF008093DE0084E01BC0D0
:10042000822F80558230B0F482E28093C3008091A5
:100430007100882379F4203531F48A81882311F4FE
:10044000C49801C0C49A86B382728093C30002C06C
:1004500080E001C081E0DF91CF911F910F91FF906B
:100460000895CF92DF92EF92FF920F931F93CF9355
:10047000DF93EC018091B500803309F05BC06630FA
:1004800009F0C7C068813981862F880F880F8C7763
:10049000932F9295969596959370892BDD80BC81CC
:1004A0007B815A813F73F0E0A9E22F2F9A2F42EC13
:1004B000E42E45EFF42E48E4042F42E7142F4F2F8B
:1004C000EF2FCF2E889420F42E0D4F1DE01FC11E5C
:1004D000C794E79547952795379557957795B7959D
:1004E000D7949A9581F7550F331F221F441FEE1F93
:1004F000CC1CEC2C6295669567706C5F8F5F90E00A
:1005000070E074D65F2F8894331F221F441FEE1FA4
:10051000EE1CFF1F551FF81B590B20F4F80F591F35
:10052000889401C00894AA9579F7388329834A836F
:10053000EB833BC08133A9F5683009F06AC0609154
:10054000B40063706093B40070E0660F771F660FAD
:10055000771FFB01E958FF4F88819981AA81BB81F0
:1005600080839183A283B383695E7F4FCE0144E091
:1005700050E093D66091B40070E0660F771F660F6D
:10058000771FFB01E957FF4F8C819D81AE81BF81B1
:1005900080839183A283B383695D7F4FCE010496EC
:1005A00025C0823341F46430A1F5688179818A8164
:1005B0009B81D0D12EC0833391F4643051F5888172
:1005C0009981AA81BB818093610090936200A0937E
:1005D0006300B0936400CE0161E070E007C0843333
:1005E00041F46430B1F4CE0165E070E044E050E0E5
:1005F0000FC0853371F4623061F4888199819093E2
:100600006A0080936900CE0169E070E042E050E04A
:1006100044D681E0DF91CF911F910F91FF90EF9031
:10062000DF90CF900895EF92FF920F931F93CF9397
:10063000DF9380E8F82E00E0C0E0D0E0102F1F0D1F
:1006400011BF70D49C0189E0243338070CF0102FBF
:10065000F6942196C830D10511F0012FEFCF11503B
:1006600011BF1F5F7901C12FD0E0219610C05AD46D
:100670008453994097FF03C0909581959F4F8E15A5
:100680009F0514F411B77C0181B78F5F81BF81B7DB
:1006900090E0C817D9075CF711BFDF91CF911F9188
:1006A0000F91FF90EF900895F894BDDF789461B7B3
:1006B00080E090E0FBD5089582E390E03BE1232FBA
:1006C0002A95F1F701972FEF8F3F920721F481E0F0
:1006D0008093CB000895B39BF2CF08951092CB0086
:1006E000BB98B99A8BE1982F9A95F1F7BB9A8A95A6
:1006F000F1F70895B99ABB988BE1982F9A95F1F785
:10070000B9988A95F1F70895B99ABB98D5DFBB9A45
:100710008BE18A95F1F70895B998BB98CDDFBB9A24
:100720008BE18A95F1F70895B998BB98C5DF86B338
:10073000BB9A82700895FF920F931F93F82E00E0EA
:1007400010E8812F8F2111F4DFDF01C0E5DF0F5F9B
:10075000083011F01695F5CF1091CB00E5DF182B7E
:100760001093CB001F910F91FF9008950F931F934B
:1007700010E000E0110FD8DF811111600F5F083029
:10078000C9F7812F1F910F910895FF920F931F9327
:100790000091B8000150302F369536952091B90060
:1007A00024502295220F207E3F71322B3093BC00C3
:1007B0004091B6005091B70021E20024FF1810F4D8
:1007C000F40E051E0794F79497958795779567958E
:1007D0002A95A9F7A62FE72FF82F192F292F3F2D9C
:1007E00080919A0090919B00049643E0969587959E
:1007F0004A95E1F78217930710F480E03BC04091DF
:1008000061005091620060916300709164003A2F22
:1008100080E090E0A0E0B0E028E48894331FEE1F71
:10082000FF1F111FFF1C881F991FAA1FBB1F841BBE
:10083000950BA60BB70B30F4840F951FA61FB71F9F
:10084000889401C008942A9549F7311DE11DF11DD6
:10085000111DF11C3093C100E093C000F093BF0064
:100860001093BE000295000F000F007C0F2900932B
:10087000BD0081E01F910F91FF900895982F809106
:100880007100882369F0BC9ABD9A892F90FF02C03D
:10089000C49A01C0C49881FF02C0C59A0895C59842
:1008A00008951F93182F1ADF80919E00880F43DF51
:1008B0008091CB00882311F080E003C0812F3BDFC3
:1008C00081E01F910895CF93DF938F77EADF88232C
:1008D00091F004DF80919E00880F81602CDFCCEBCB
:1008E000D0E044DF899310DF80E0C13CD807C9F72E
:1008F0003DDF888311DFFEDE8091CB00882311F479
:1009000086E001C080E0DF91CF9108951F93162FFC
:10091000C8DF882311F0812F0EDFECDE1F910895D0
:1009200080919D008F77BDDF882391F08091BC007E
:1009300002DF8091BD00FFDE8091BE00FCDE809171
:10094000BF00F9DE8091C000F6DE8091C100F3DEC9
:10095000D1DE08956F927F928F929F92AF92BF9255
:10096000CF92DF92EF92FF920F931F93CF93DF937B
:100970005B016C0160936500709366008093670073
:100980009093680080916B0090916C00C816D90616
:1009900010F4A0E013C080916D0090916E00C81615
:1009A000D90610F4A1E00AC080916F009091700008
:1009B000C816D90610F0A3E001C0A2E0B0E0FD0126
:1009C000EE0FFF1FEE0FFF1FE05AFF4FE788F08C7E
:1009D000018D128D27A130A541A552A5662477244B
:1009E000430181E2AE18BF08C00AD10A889420F4FE
:1009F000620E731E841E951E979487947794679455
:100A0000D794C794B794A7948A9589F78BE0CC0CB8
:100A1000DD1C661C771C881C991C8A95C1F7A05A9E
:100A2000BF4F53968C912ADF6091690070916A00E4
:100A30006115710509F444C0A090CC00B090CD00C0
:100A4000C090CE00D090CF00A40193012A193B0999
:100A50004C095D0957FF07C0509540953095219589
:100A60003F4F4F4F5F4F79018A01F4E0EE0CFF1CBE
:100A7000001F111FFA95D1F7E21AF30A040B150BA8
:100A800080E090E0960140E050E0C2D36E157F0513
:100A900080079107A8F0C401B30177DE80919D0023
:100AA00087FF0CC087E860E231DF8091CB008823AC
:100AB00009F094C035DF87E860E08FC031DF8EC079
:100AC0008091980090919900B401769567957695FC
:100AD000679553E0880F991F5A95E1F7B2D36B01E0
:100AE00010919C00C0E8D5E0EE2400E047E0EBE088
:100AF000F0E02E2FE83009F441C0EA3009F43EC09E
:100B0000C601BF019ED36F5F7F4F862F613871058D
:100B1000A8F5613011F060FD8F5F113039F11230AE
:100B200029F4813019F5423008F528C0133049F412
:100B3000813059F0823081F08430C1F42430B1F436
:100B40001DC0143099F4813029F44430B8F02B30B2
:100B500069F414C0823051F4243081F0253071F0F2
:100B6000263061F0273051F0293041F0382FCF0185
:100B7000632F70E03BD38C179D0718F0CE01302F08
:100B80002E2D415031974F3F21F0EC01E22E032FE3
:100B9000B0CF222319F19093B7008093B600309321
:100BA000B8002093B900C401B301EFDD8823B1F090
:100BB0006092CC007092CD008092CE009092CF00D7
:100BC00089E860E1A3DE8091CB00882339F4A8DEB8
:100BD00089E860E09BDE87E860E498DEDF91CF91F2
:100BE0001F910F91FF90EF90DF90CF90BF90AF904B
:100BF0009F908F907F906F900895B39B4DC0809190
:100C0000C200882309F44BC01092CC001092CD0092
:100C10001092CE001092CF0080919D0090E08F77CF
:100C20009070892B59F587E861E070DE8CE991E0DE
:100C30000197F1F78DE047DE8823A9F020E030E04E
:100C4000922FF901E25EFF4FE491D901A454BF4F06
:100C50008C91E81731F49F5F2F5F3F4F26303105AD
:100C600079F7963029F480919D008078876004C0E0
:100C700080919D0080788D6080939D0060916500DB
:100C800070916600809167009091680063DE8091AA
:100C9000CB008093C200089581E08093C200089544
:100CA00085B7826085BF8BB780648BBF08951F9323
:100CB000CF93DF936091E000635067FDB2C08091F5
:100CC000DD00CCE0D0E0C81BD109CC51DF4F8091D2
:100CD000DC008D3209F093C0683009F0A0C083ECCD
:100CE0008093D0008AE58093B1001092BB00888188
:100CF000807639F0CE013ADA282F8F3F09F46EC0A2
:100D000074C09A811092D9008981882321F41092AD
:100D1000DA0022E05CC0853019F49093E10056C0FF
:100D2000863009F044C08B81813019F488E590E069
:100D300004C0823041F48AE690E09093DF00809313
:100D4000DE0080E42DC0833069F58A81882349F470
:100D500084E290E09093DF008093DE0080E424E062
:100D600023C0813049F488E290E09093DF008093C3
:100D7000DE0080E42AE118C0823049F482E490E089
:100D80009093DF008093DE0080E426E10DC0833085
:100D900049F48FE990E09093DF008093DE0080E0DB
:100DA00022E102C080E420E08093BB001EC08830B6
:100DB00021F421E083EE90E00CC0893019F4909387
:100DC000E30004C08A3011F421E001C020E089ED85
:100DD00090E09093DF008093DE0007C0888187FD5C
:100DE0002E8180E88093BB0006C08F81882319F490
:100DF0008E81821708F0822F8093B20010C08091FC
:100E0000BB0087FF0CC0CE012CDB8F3F21F48EE1AD
:100E10008093B10004C0882311F01092B2001092A8
:100E2000E0008091B10084FF49C08091B2008F3F03
:100E300009F444C0182F893008F018E0811B809312
:100E4000B2008091D00098E889278093D0001123C8
:100E500041F12091DE003091DF008091BB0086FFE0
:100E60000DC0A1EDB0E080E090E0F901E80FF91FBE
:100E7000E491ED9301961817C1F708C0912FD9019D
:100E8000E1EDF0E08D9181939150E1F71150812FC8
:100E900090E01F5F0196820F931F9093DF00809375
:100EA000DE0081ED90E0612F39D0612F6C5F6C30F6
:100EB00019F08FEF8093B2006093B10094E186B394
:100EC000857031F49150D9F71092E1001092DB0057
:100ED00010E0992309F411E08091BA00811729F0FC
:100EE000112309F4E1DB1093BA00DF91CF911F9138
:100EF0000895A82FB92F80E090E041E050EA609576
:100F000030E009C02D9182279795879510F08427AE
:100F10009527305EC8F36F5FA8F30895EADF8D93DD
:100F20009D930895A6E088279927AA9569F00197CF
:100F3000E1F3B299FCCFB29BFECF81E09927A6B333
:100F4000019611F0A570D9F70895CF93CFB7CF933D
:100F5000C395B29BE9F7B29B0BC0B29B09C0B29B91
:100F600007C0B29B05C0B29B03C0B29B01C0D3C0F7
:100F70000F92DF93C091DD00DD27CC51DF4F012EB2
:100F8000B29B03C0DF910F90E6CF2F930F931F9377
:100F90004F932FEF4F6F06B302FB20F95F933F9300
:100FA00050E03BE065C016B30126502952FDC895BC
:100FB00056B3012702FB25F92F7306B3B1F0502772
:100FC000102712FB26F906B22230F0F000C016B34B
:100FD000012702FB27F90126502906B22430E8F543
:100FE0004F77206816B30000F6CF50274F7D206260
:100FF00006B2102F000000C006B3002650291027AB
:1010000012FB26F906B2E2CF4F7B06B3206400C084
:10101000DACF01265029157006B269F14E7F2160A2
:10102000012F16B328C0002650294D7F06B222603A
:10103000102F29C0012650294B7F06B22460012FB2
:101040002DC016B301265029477F2860000006B244
:101050002EC04F7E06B3206130C0422706B34993AD
:1010600000265029102706B24FEF12FB20F9297FE6
:1010700016B379F2157059F10126502906B20127ED
:1010800002FB21F9237F06B371F20026502931506B
:10109000D0F006B2102712FB22F9277E16B351F2C8
:1010A00001265029012702FB06B223F92F7C49F2C1
:1010B000000006B3102712FB24F90026502906B2BF
:1010C0002F7939F270CF10E41ABF002717C03B50B8
:1010D0003195C31BD04010E41ABF0881033CF9F0DE
:1010E0000B34E9F02091DB001981110F1213EDCFC1
:1010F000093651F10D3211F0013E39F70093E2004B
:101100003F915F914F911F910F912F91DF910F9020
:10111000CAB7C6FD1DCFCF91CFBFCF9118952091F3
:10112000E200222369F31091E000112321F534300D
:1011300022F13093E0002093DC001091DD003BE0D1
:10114000311B3093DD0019C00091E00001309CF4A8
:101150000AE53091B10034FD11C00093B100C0ED3B
:10116000D0E010C0052710E000C021C0052710E026
:10117000C89508BB14C03AE501C032ED032EC0E0AB
:10118000D0E032E017B31560C29A08B317BB55E040
:1011900020E84FEF20FF052708BB279517951C3F38
:1011A00028F700004552B0F720FF0527279508BB18
:1011B00017951C3FB8F629913A9561F70A7F10916F
:1011C000E100110F08BBC250D04011F01093DB00BA
:1011D00010E41ABF046017B31A7F402F4A7F54E00F
:1011E0005A95F1F708BB17BB48BB8ACF5527002497
:1011F00080FF02C0060E571F660F771F611571052D
:1012000021F096958795009799F7952F802D089551
:10121000FF27EE27BB27AA2760FF04C0A20FB31F3A
:10122000E41FF51F220F331F441F551F9695879506
:101230007795679589F70097760771F7CF01BD011C
:101240000895AA1BBB1B51E107C0AA1FBB1FA6170D
:10125000B70710F0A61BB70B881F991F5A95A9F75F
:1012600080959095BC01CD010895DC01CB01FC0176
:10127000E199FECF06C0FFBBEEBBE09A31960DB2FE
:101280000D9241505040B8F70895E199FECF9FBBB1
:101290008EBBE09A99278DB30895DC01CB0102C083
:1012A0002D9105D041505040D8F70895262FE1994F
:1012B000FECF1CBA9FBB8EBB2DBB0FB6F894E29A33
:1012C000E19A0FBE01960895F1DF272FF0CFF89431
:0212D000FFCF4E
:1012D200FFC2F5487266668603AC0D000200040088
:1012E20008010000010203000000000000000000ED
:1012F20000000000000000000020000000200000AC
:101302000020000000200030F212261603005512C1
:101312000350004500300046004B004F002D0030C6
:04132200005AFF006E
:00000001FF
