:100000003AC045C75DC05CC05BC05AC059C058C04B
:1000100057C056C055C054C053C052C051C004034D
:1000200009041A037700770077002E006F00620042
:100030006400650076002E00610074001603440021
:10004000470038005300410051002D0049003200A4
:10005000430012011001FF000008C016DC0500017A
:100060000102030109021200010100800A090400D3
:1000700000000000000011241FBECFE5D2E0DEBF6B
:10008000CDBF14BE88E10FB6F89481BD11BC0FBE80
:1000900080E187BB18BA10E0A0E6B0E0E6E1F2E14B
:1000A00002C005900D92A23BB107D9F710E0A2EB78
:1000B000B0E001C01D92A13FB107E1F70ED0A9C881
:1000C00000C018958FE887B987EC86B93699FECFBE
:1000D00024B135B116B8C90108958DE390E077D801
:1000E0008F3F41F480E690E060E070E04EE350E046
:1000F00076D807C080E690E060E070E04EE350E024
:1001000056D8809160008F3F09F081BF77247394A7
:10011000809197008093AE001092AF0049D588EE91
:1001200093E02CE931E0F9013197F1F70197D9F724
:10013000BA9A80EA9FE02CE931E0F9013197F1F7B2
:100140000197D9F7BA982CE088E190E00FB6F894BF
:10015000A89581BD0FBE21BD45D57894A89549D5F8
:1001600027D5FCCFFF920F931F93CF93DF93EC0122
:100170002981622E8BEB90E09093D6008093D5007E
:100180008FEF8093BB00222319F48EE09FE037C0ED
:10019000213021F48A818A7F87BB40C1223011F44B
:1001A00086B339C1233011F488B335C1243049F402
:1001B00080917100882309F031C18A818A7F88BBD0
:1001C0002DC12F3009F4FFCF2531F9F48091710052
:1001D000882379F487B39A81929590738F7C892BC9
:1001E00087BB88B3909598238C8182958073982BD8
:1001F00098BB86B382958F7090E0837090709093D7
:10020000BC008093BB0082E00CC1263191F3273102
:1002100011F56C818D81882309F000C16430A0F450
:1002200070E0660F771FFB01E05AFF4F8A819B81C8
:1002300094878387655F7F4FCB01805A9F4F6050C3
:10024000704042E050E0CBD78BE690E09093D60030
:100250008093D5003EC0203261F48B816C812FD316
:100260001092C3001092C4001092C5001092C600F4
:1002700055C0822F8053863028F48C818093B20041
:100280008FEFCFC0293339F5EC81E370F0E0EE0F4A
:10029000FF1FEE0FFF1FDF01A958BF4F8D919D91EA
:1002A0000D90BC91A02D8093BB009093BC00A093B7
:1002B000BD00B093BE00E957FF4F80819181A281BC
:1002C000B3818093BF009093C000A093C100B0930E
:1002D000C20088E0A6C02A3319F485E690E080C009
:1002E0002B3339F489E690E09093D6008093D500C3
:1002F0008ACF2C3341F48BEB90E065E070E044E072
:1003000050E055D771C02D3319F481E690E068C0F4
:100310002F3311F4B1D285C0203419F48092BB0080
:100320007FC0213469F480919D008093BB006A8175
:10033000662309F475C060939D008DE390E012C0C0
:10034000223411F4BFDE5BCF233471F48091970027
:100350008093BB006A81662309F462C060939700B2
:1003600087E390E045D75CC0243431F56A81662389
:1003700029F060939C008CE390E03AD76C817D81FA
:100380006115710589F08B81882339F47093990088
:100390006093980088E390E006C070939B006093A0
:1003A0009A008AE390E032D788E990E09093D600F3
:1003B0008093D50085E035C0283171F40C8103703D
:1003C000FA8010E0C8018D5E9F4F6F2D11D7005A43
:1003D0001F4FF801F38A02C0293141F483E790E00E
:1003E0009093D6008093D50084E01BC0822F805567
:1003F0008230B0F482E28093BB0080917100882348
:1004000079F4203531F48A81882311F4C49801C02D
:10041000C49A86B382728093BB0002C080E001C0A0
:1004200081E0DF91CF911F910F91FF900895CF92BE
:10043000DF92EF92FF920F931F93CF93DF93EC0124
:10044000862D803309F05BC0663009F0C7C0688133
:100450003981862F880F880F8C77932F92959695E8
:1004600096959370892BDD80BC817B815A813F7387
:10047000F0E0A9E22F2F9A2F42ECE42E45EFF42E64
:1004800048E4042F42E7142F4F2FEF2FCF2E8894EC
:1004900020F42E0D4F1DE01FC11EC794E795479510
:1004A0002795379557957795B795D7949A9581F76E
:1004B000550F331F221F441FEE1FCC1CEC2C6295DE
:1004C000669567706C5F8F5F90E070E031D65F2F4C
:1004D0008894331F221F441FEE1FEE1CFF1F551F61
:1004E000F81B590B20F4F80F591F889401C0089489
:1004F000AA9579F7388329834A83EB833BC08133FC
:10050000A9F5683009F06AC06091B2006370609329
:10051000B20070E0660F771F660F771FFB01E95886
:10052000FF4F88819981AA81BB8180839183A283B7
:10053000B383695E7F4FCE0144E050E050D66091B6
:10054000B20070E0660F771F660F771FFB01E95757
:10055000FF4F8C819D81AE81BF8180839183A28377
:10056000B383695D7F4FCE01049625C0823341F489
:100570006430A1F5688179818A819B81C2D12EC0C6
:10058000833391F4643051F588819981AA81BB81CC
:100590008093610090936200A0936300B093640025
:1005A000CE0161E070E007C0843341F46430B1F4FF
:1005B000CE0165E070E044E050E00FC0853371F497
:1005C000623061F48881998190936A008093690018
:1005D000CE0169E070E042E050E001D681E0DF91B9
:1005E000CF911F910F91FF90EF90DF90CF900895E2
:1005F000EF92FF920F931F93CF93DF9380E8F82E33
:1006000000E0C0E0D0E0102F1F0D11BF2DD49C01E1
:1006100089E0243338070CF0102FF6942196C83067
:10062000D10511F0012FEFCF115011BF1F5F7901DC
:10063000C12FD0E0219610C017D48453994097FF62
:1006400003C0909581959F4F8E159F0514F411B7A7
:100650007C0181B78F5F81BF81B790E0C817D90750
:100660005CF711BFDF91CF911F910F91FF90EF9039
:100670000895F894BDDF789461B780E090E0B8D534
:10068000089582E390E03DE0232F2A95F1F701974A
:100690002FEF8F3F920719F4882483940895B39B1A
:1006A000F3CF08958824BB98B99A8DE0982F9A9536
:1006B000F1F7BB9A8A95F1F70895B99ABB988DE046
:1006C000982F9A95F1F7B9988A95F1F70895B99A04
:1006D000BB98D7DFBB9A8DE08A95F1F70895B9985A
:1006E000BB98CFDFBB9A8DE08A95F1F70895B99852
:1006F000BB98C7DF86B3BB9A82700895FF920F93B1
:100700001F93F82E00E010E8812F8F2111F4DFDF16
:1007100001C0E5DF0F5F083011F01695F5CF182DF9
:10072000E6DF882E812A1F910F91FF9008950F9385
:100730001F9300E010E0110FDADF811111600F5FED
:100740000830C9F7812F1F910F910895FF920F93E1
:100750001F93042D0150302F36953695252D2450AA
:100760002295220F207E3F71322B3093B50021E27B
:100770000024FF1810F4F20C031C0794F7949795CB
:100780008795779567952A95A9F7A62FE72FF82FD4
:10079000192F292F3F2D80919A0090919B0004964C
:1007A00043E0969587954A95E1F78217930710F4F1
:1007B00080E03BC040916100509162006091630015
:1007C000709164003A2F80E090E0A0E0B0E028E46F
:1007D0008894331FEE1FFF1F111FFF1C881F991FD6
:1007E000AA1FBB1F841B950BA60BB70B30F4840FFD
:1007F000951FA61FB71F889401C008942A9549F732
:10080000311DE11DF11D111DF11C3093BA00E09363
:10081000B900F093B8001093B7000295000F000FD5
:10082000007C0F290093B60081E01F910F91FF908B
:100830000895982F80917100882369F0BC9ABD9A21
:10084000892F90FF02C0C49A01C0C49881FF02C0E2
:10085000C59A0895C59808951F93182F23DF809196
:100860009D00880F4BDF882011F080E003C0812FAE
:1008700045DF81E01F910895CF93DF9387E0ECDFA0
:100880008823A1F00FDF80919D00880F816036DF03
:10089000CBEBD0E04CDF89931ADF80E0C03CD80777
:1008A000C9F745DFEBEBF0E0858319DF06DF882031
:1008B00011F486E001C080E0DF91CF9108951F938D
:1008C000162FCADF882311F0812F18DFF6DE1F9163
:1008D000089587E0C1DF882391F08091B5000EDF95
:1008E0008091B6000BDF8091B70008DF8091B800DF
:1008F00005DF8091B90002DF8091BA00FFDEDDDE06
:100900000895AF92BF92CF92DF92EF92FF920F9332
:100910001F93DF93CF93CDB7DEB728970FB6F89428
:10092000DEBF0FBECDBF5B016C01609365007093AD
:100930006600809367009093680080916B009091AF
:100940006C00C816D90610F4A0E013C080916D00A9
:1009500090916E00C816D90610F4A1E00AC08091EB
:100960006F0090917000C816D90610F0A3E001C086
:10097000A2E0B0E0FD01EE0FFF1FEE0FFF1FE05AF7
:10098000FF4FE788F08C018D128D27A130A541A57E
:1009900052A52D833E834F835887E1E260E070E0EB
:1009A00080E090E0AE18BF08C00AD10A889420F415
:1009B000620F731F841F951F97958795779567958D
:1009C000D794C794B794A794EA9589F7EBE0CC0C39
:1009D000DD1C661F771F881F991FEA95C1F7698381
:1009E0007A838B839C83A05ABF4F53968C9121DFCF
:1009F0006091690070916A0061157105C1F1A09064
:100A0000C300B090C400C090C500D090C60029813A
:100A10003A814B815C812A193B094C095D0957FFDA
:100A200007C050954095309521953F4F4F4F5F4FF0
:100A300079018A01A4E0EE0CFF1C001F111FAA958A
:100A4000D1F7E21AF30A040B150B80E090E096014F
:100A500040E050E07FD36E157F058007910738F0A6
:100A600069817A818B819C8171DE33DF90C08091B6
:100A70009800909199006B817C8176956795769529
:100A80006795E3E0880F991FEA95E1F77CD36B0146
:100A900010919C0050E8A52E55E0B52EEE2400E004
:100AA00047E0EBE0F0E02E2FE83009F441C0EA30F7
:100AB00009F43EC0C601BF0166D36F5F7F4F862F2A
:100AC00061387105A8F5613011F060FD8F5F11305C
:100AD00039F1123029F4813019F5423008F528C077
:100AE000133049F4813059F0823081F08430C1F400
:100AF0002430B1F41DC0143099F4813029F444300D
:100B0000B8F02B3069F414C0823051F4243081F0F5
:100B1000253071F0263061F0273051F0293041F056
:100B2000382FCF01632F70E003D38A159B0518F08F
:100B3000C501302F2E2D415031974F3F21F05C01E0
:100B4000E22E032FB0CF222311F11C01432E522E8F
:100B500069817A818B819C81F9DD8823C1F089814B
:100B60009A81AB81BC818093C3009093C400A09311
:100B7000C500B093C60089E860E1A1DE882039F4A1
:100B8000A8DE89E860E09BDE87E860E498DE2896CE
:100B90000FB6F894DEBF0FBECDBFCF91DF911F918E
:100BA0000F91FF90EF90DF90CF90BF90AF9008959E
:100BB000B39B15C07720A9F01092C3001092C40017
:100BC0001092C5001092C600609165007091660099
:100BD000809167009091680094DE782C08957724C6
:100BE0007394089585B7826085BF8BB780648BBF8F
:100BF00008951F93CF93DF936091D700635067FDF3
:100C0000B2C08091D400CCE0D0E0C81BD109C5525D
:100C1000DF4F8091D3008D3209F093C0683009F026
:100C2000A0C083EC8093C7008AE58093B000109247
:100C3000B4008881807639F0CE0194DA282F8F3F76
:100C400009F46EC074C09A811092D0008981882303
:100C500021F41092D10022E05CC0853019F4909309
:100C6000D80056C0863009F044C08B81813019F419
:100C700082E590E004C0823041F484E690E09093F5
:100C8000D6008093D50080E42DC0833069F58A8139
:100C9000882349F48EE190E09093D6008093D500AC
:100CA00080E424E023C0813049F482E290E0909314
:100CB000D6008093D50080E42AE118C0823049F440
:100CC0008CE390E09093D6008093D50080E426E1F9
:100CD0000DC0833049F48EE990E09093D600809364
:100CE000D50080E022E102C080E420E08093B400DF
:100CF0001EC0883021F421E08AED90E00CC08930DC
:100D000019F49093DA0004C08A3011F421E001C094
:100D100020E080ED90E09093D6008093D50007C04E
:100D2000888187FD2E8180E88093B40006C08F8182
:100D3000882319F48E81821708F0822F8093B100E6
:100D400010C08091B40087FF0CC0CE0170DB8F3FD4
:100D500021F48EE18093B00004C0882311F010923A
:100D6000B1001092D7008091B00084FF49C08091FB
:100D7000B1008F3F09F444C0182F893008F018E003
:100D8000811B8093B1008091C70098E889278093E8
:100D9000C700112341F12091D5003091D6008091F8
:100DA000B40086FF0DC0A8ECB0E080E090E0F9014F
:100DB000E80FF91FE491ED9301961817C1F708C0E9
:100DC000912FD901E8ECF0E08D9181939150E1F7FA
:100DD0001150812F90E01F5F0196820F931F909317
:100DE000D6008093D50088EC90E0612F39D0612F38
:100DF0006C5F6C3019F08FEF8093B1006093B0009E
:100E000094E186B3857031F49150D9F71092D800EF
:100E10001092D20010E0992309F411E08091B30000
:100E2000811729F0112309F424DC1093B300DF911A
:100E3000CF911F910895A82FB92F80E090E041E055
:100E400050EA609530E009C02D91822797958795EB
:100E500010F084279527305EC8F36F5FA8F30895DC
:100E6000EADF8D939D930895A6E088279927AA9598
:100E700069F00197E1F3B299FCCFB29BFECF81E01C
:100E80009927A6B3019611F0A570D9F70895CF93CD
:100E9000CFB7CF93C395B29BE9F7B29B0BC0B29B80
:100EA00009C0B29B07C0B29B05C0B29B03C0B29BF6
:100EB00001C0D3C00F92DF93C091D400DD27C5528B
:100EC000DF4F012EB29B03C0DF910F90E6CF2F932F
:100ED0000F931F934F932FEF4F6F06B302FB20F931
:100EE0005F933F9350E03BE065C016B30126502965
:100EF00052FDC89556B3012702FB25F92F7306B39F
:100F0000B1F05027102712FB26F906B22230F0F07C
:100F100000C016B3012702FB27F90126502906B2AB
:100F20002430E8F54F77206816B30000F6CF50273D
:100F30004F7D206206B2102F000000C006B30026CD
:100F40005029102712FB26F906B2E2CF4F7B06B3D9
:100F5000206400C0DACF01265029157006B269F16D
:100F60004E7F2160012F16B328C0002650294D7FE7
:100F700006B22260102F29C0012650294B7F06B2ED
:100F80002460012F2DC016B301265029477F286009
:100F9000000006B22EC04F7E06B3206130C042274B
:100FA00006B3499300265029102706B24FEF12FBD3
:100FB00020F9297F16B379F2157059F101265029CD
:100FC00006B2012702FB21F9237F06B371F2002646
:100FD00050293150D0F006B2102712FB22F9277E9B
:100FE00016B351F201265029012702FB06B223F95C
:100FF0002F7C49F2000006B3102712FB24F90026CB
:10100000502906B22F7939F270CF10E41ABF0027A9
:1010100017C03B503195C31BD04010E41ABF088164
:10102000033CF9F00B34E9F02091D2001981110F43
:101030001213EDCF093651F10D3211F0013E39F79F
:101040000093D9003F915F914F911F910F912F9184
:10105000DF910F90CAB7C6FD1DCFCF91CFBFCF9103
:1010600018952091D900222369F31091D7001123FC
:1010700021F5343022F13093D7002093D300109122
:10108000D4003BE0311B3093D40019C00091D7004D
:1010900001309CF40AE53091B00034FD11C000939A
:1010A000B000C7ECD0E010C0052710E000C021C0A0
:1010B000052710E0C89508BB14C03AE501C032ED21
:1010C000032EC0E0D0E032E017B31560C29A08B337
:1010D00017BB55E020E84FEF20FF052708BB2795F9
:1010E00017951C3F28F700004552B0F720FF052751
:1010F000279508BB17951C3FB8F629913A9561F7DB
:101100000A7F1091D800110F08BBC250D04011F0D7
:101110001093D20010E41ABF046017B31A7F402F57
:101120004A7F54E05A95F1F708BB17BB48BB8ACFFA
:101130005527002480FF02C0060E571F660F771F39
:101140006115710521F096958795009799F7952F70
:10115000802D0895FF27EE27BB27AA2760FF04C034
:10116000A20FB31FE41FF51F220F331F441F551F8B
:10117000969587957795679589F70097760771F724
:10118000CF01BD010895AA1BBB1B51E107C0AA1FD7
:10119000BB1FA617B70710F0A61BB70B881F991F18
:1011A0005A95A9F780959095BC01CD010895DC0171
:1011B000CB01FC01E199FECF06C0FFBBEEBBE09A7C
:1011C00031960DB20D9241505040B8F70895E19913
:1011D000FECF9FBB8EBBE09A99278DB30895DC01AB
:1011E000CB0102C02D9105D041505040D8F7089551
:1011F000262FE199FECF1CBA9FBB8EBB2DBB0FB62D
:10120000F894E29AE19A0FBE01960895F1DF272F34
:06121000F0CFF894FFCFBF
:10121600FFC2F5487266668603AC0D000200040044
:1012260008010000010203000000000000000000A9
:101236000000000000000000002000000020000068
:101246000020000000200030F2122616035512037B
:1012560050004500300046004B004F002D00300086
:021266005AFF2D
:00000001FF
