:100000003AC0D4C55DC05CC05BC05AC059C058C0BE
:1000100057C056C055C054C053C052C051C004034D
:1000200009041A037700770077002E006F00620042
:100030006400650076002E00610074001603440021
:10004000470038005300410051002D0049003200A4
:10005000430012011001FF000008C016DC0500017A
:100060000102030109021200010100800A090400D3
:1000700000000000000011241FBECFE5D2E0DEBF6B
:10008000CDBF14BE88E10FB6F89481BD11BC0FBE80
:1000900080E187BB18BA10E0A0E6B0E0E0E8F1E14B
:1000A00002C005900D92AE3AB107D9F710E0AEEA62
:1000B000B0E001C01D92AD3EB107E1F716D05EC8B9
:1000C00000C018958FE887B987EC86B93699FECFBE
:1000D00084B195B116B860E670E0E2D780549546D9
:1000E00067E070E008D8CB01089588E390E027D856
:1000F0008F3F41F480E690E060E070E049E350E03B
:1001000026D807C080E690E060E070E049E350E068
:1001100006D8809160008F3F09F081BF77247394E7
:10012000809197008093A9001092AA00F9D488EEDC
:1001300093E02CE931E0F9013197F1F70197D9F714
:10014000BA9A80EA9FE02CE931E0F9013197F1F7A2
:100150000197D9F7BA982CE088E190E00FB6F894AF
:10016000A89581BD0FBE21BD72D67894A89576D68C
:10017000D7D4FCCFFF920F931F93DC0111962C91E3
:100180001197622E87EB90E09093D2008093D1007C
:100190008FEF8093B700222319F48DE09FE03CC0DD
:1001A000213029F412968C918A7F87BB2CC1223092
:1001B00011F486B325C1233011F488B321C1243052
:1001C00051F480917100882309F01DC112968C9121
:1001D0008A7F88BB18C12F3009F4FFCF253111F574
:1001E00080917100882391F487B312969C911297A5
:1001F000929590738F7C892B87BB88B390959823B9
:1002000014968C9182958073982B98BB86B38295B7
:100210008F7090E0837090709093B8008093B700D7
:1002200082E0F4C0263191F3273141F514966C91A8
:10023000149715968C911597882309F0E4C06430C3
:10024000B0F470E0660F771FFB01E05AFF4F129683
:100250008D919C91139794878387655F7F4FCB0126
:10026000805A9F4F6050704042E050E070D78BE65C
:1002700090E09093D2008093D10043C0203279F473
:1002800013968C91139714966C9103D31092BF0020
:100290001092C0001092C1001092C20057C0822F6D
:1002A0008053863030F414968C918093AE008FEF9B
:1002B000ADC0293341F51496EC91E370F0E0EE0FF8
:1002C000FF1FEE0FFF1FDF01A958BF4F8D919D91BA
:1002D0000D90BC91A02D8093B7009093B800A0938F
:1002E000B900B093BA00E957FF4F80819181A28194
:1002F000B3818093BB009093BC00A093BD00B093EA
:10030000BE0088E083C02A3319F485E690E05CC023
:100310002B3339F489E690E09093D2008093D1009A
:100320007FCF2C3341F487EB90E065E070E044E050
:1003300050E0F5D64DC02D3319F481E690E044C06D
:100340002F3311F483D262C0203419F48092B700A5
:100350005CC0213471F4809198008093B7001296AC
:100360006C91662309F451C06093980088E390E093
:1003700012C0223411F4A6DE4FCF233471F48091E1
:1003800097008093B70012966C916623F1F1609309
:10039000970087E390E0E4D638C0283189F41496BA
:1003A0000C91149703701296FC9010E0C8018D5EBA
:1003B0009F4F6F2DD5D6005A1F4FF801F38A02C008
:1003C000293141F483E790E09093D2008093D100EB
:1003D00084E01CC0822F80558230B8F482E2809382
:1003E000B70080917100882381F4203539F412968A
:1003F0008C91882311F4C49801C0C49A86B3827288
:100400008093B70002C080E001C081E01F910F918E
:10041000FF900895CF92DF92EF92FF920F931F9378
:10042000CF93DF93EC01862D803309F05BC06630FB
:1004300009F0C7C068813981862F880F880F8C77B3
:10044000932F9295969596959370892BDD80BC811C
:100450007B815A813F73F0E0A9E22F2F9A2F42EC63
:10046000E42E45EFF42E48E4042F42E7142F4F2FDB
:10047000EF2FCF2E889420F42E0D4F1DE01FC11EAC
:10048000C794E79547952795379557957795B795ED
:10049000D7949A9581F7550F331F221F441FEE1FE3
:1004A000CC1CEC2C6295669567706C5F8F5F90E05A
:1004B00070E0F6D55F2F8894331F221F441FEE1F74
:1004C000EE1CFF1F551FF81B590B20F4F80F591F86
:1004D000889401C00894AA9579F7388329834A83C0
:1004E000EB833BC08133A9F5683009F06AC06091A5
:1004F000AE0063706093AE0070E0660F771F660F0A
:10050000771FFB01E958FF4F88819981AA81BB8140
:1005100080839183A283B383695E7F4FCE0144E0E1
:1005200050E015D66091AE0070E0660F771F660F41
:10053000771FFB01E957FF4F8C819D81AE81BF8101
:1005400080839183A283B383695D7F4FCE0104963C
:1005500025C0823341F46430A1F5688179818A81B4
:100560009B81B9D12EC0833391F4643051F58881D9
:100570009981AA81BB818093610090936200A093CE
:100580006300B0936400CE0161E070E007C0843383
:1005900041F46430B1F4CE0165E070E044E050E035
:1005A0000FC0853371F4623061F488819981909332
:1005B0006A0080936900CE0169E070E042E050E09B
:1005C000C6D581E0DF91CF911F910F91FF90EF9001
:1005D000DF90CF900895EF92FF920F931F93CF93E8
:1005E000DF9380E8F82E00E0C0E0D0E0102F1F0D70
:1005F00011BFC9D29C0189E0243338070CF0102FB9
:10060000F6942196C830D10511F0012FEFCF11508B
:1006100011BF1F5F7901C12FD0E0219610C0B3D266
:100620008453994097FF03C0909581959F4F8E15F5
:100630009F0514F411B77C0181B78F5F81BF81B72B
:1006400090E0C817D9075CF711BFDF91CF911F91D8
:100650000F91FF90EF900895F894BDDF789461B703
:1006600080E090E07DD5089582E390E03DE0232F87
:100670002A95F1F701972FEF8F3F920719F48824FD
:1006800083940895B39BF3CF08958824BB98B99AB7
:100690008DE0982F9A95F1F7BB9A8A95F1F7089516
:1006A000B99ABB988DE0982F9A95F1F7B9988A95E9
:1006B000F1F70895B99ABB98D7DFBB9A8DE08A9578
:1006C000F1F70895B998BB98CFDFBB9A8DE08A9572
:1006D000F1F70895B998BB98C7DF86B3BB9A8270CB
:1006E0000895FF920F931F93F82E00E010E8812FDA
:1006F0008F2111F4DFDF01C0E5DF0F5F083011F05B
:100700001695F5CF182DE6DF882E812A1F910F91BF
:10071000FF9008950F931F9300E010E0110FDADFB0
:10072000811111600F5F0830C9F7812F1F910F9160
:100730000895FF920F931F93F42CFA943F2D369552
:100740003695252D24502295220F207E3F71322B85
:100750003093B10021E20024001B10F4020D031CB1
:100760000794079597958795779567952A95A9F7A3
:10077000A62FE72FF82F192F292F302F265C324074
:1007800010F080E03CC040916100509162006091A7
:100790006300709164003A2F80E090E0A0E0B0E048
:1007A00028E48894331FEE1FFF1F111F001F881FAE
:1007B000991FAA1FBB1F841B950BA60BB70B30F408
:1007C000840F951FA61FB71F889401C008942A950F
:1007D00049F7311DE11DF11D111D011D3093B600BA
:1007E000E093B500F093B4001093B300F294FF0CC3
:1007F000FF0C80ECF822F02AF092B20081E01F9109
:100800000F91FF900895982F80917100882369F0CF
:10081000BC9ABD9A892F90FF02C0C49A01C0C498A7
:1008200081FF02C0C59A0895C59808951F93182F97
:100830002CDF80919800880F54DF882011F080E031
:1008400003C0812F4EDF81E01F910895CF93DF9386
:1008500087E0ECDF8823A1F018DF80919800880FF3
:1008600081603FDFC7EBD0E055DF899323DF80E075
:10087000CC3BD807C9F74EDFE7EBF0E0858322DFFA
:100880000FDF882011F486E001C080E0DF91CF9176
:1008900008951F93162FCADF882311F0812F21DFBF
:1008A000FFDE1F91089587E0C1DF882391F08091DA
:1008B000B10017DF8091B20014DF8091B30011DF27
:1008C0008091B4000EDF8091B5000BDF8091B600FF
:1008D00008DFE6DE0895AF92BF92CF92DF92EF92EB
:1008E000FF920F931F93DF93CF93CDB7DEB7289777
:1008F0000FB6F894DEBF0FBECDBF5B016C016093F5
:100900006500709366008093670090936800809103
:100910006B0090916C00C816D90610F4A0E013C0CB
:1009200080916D0090916E00C816D90610F4A1E078
:100930000AC080916F0090917000C816D90610F01F
:10094000A3E001C0A2E0B0E0FD01EE0FFF1FEE0F3B
:10095000FF1FE05AFF4FE788F08C018D128D27A111
:1009600030A541A552A52D833E834F835887E1E2F0
:1009700060E070E080E090E0AE18BF08C00AD10AE5
:10098000889420F4620F731F841F951F9795879595
:1009900077956795D794C794B794A794EA9589F704
:1009A000EBE0CC0CDD1C661F771F881F991FEA95B2
:1009B000C1F769837A838B839C83A05ABF4F539678
:1009C0008C9121DF6091690070916A006115710559
:1009D000C1F1A090BF00B090C000C090C100D09005
:1009E000C20029813A814B815C812A193B094C095B
:1009F0005D0957FF07C050954095309521953F4FB1
:100A00004F4F5F4F79018A01E4E0EE0CFF1C001F9D
:100A1000111FEA95D1F7E21AF30A040B150B80E0D7
:100A200090E0960140E050E04DD36E157F058007C1
:100A3000910738F069817A818B819C817ADE33DF7E
:100A40005EC06B817C81769567957695679580E928
:100A500097E951D3D62EE72E90E8A92E95E0B92E2E
:100A600010E000E0EBE0F0E04E2FE830D9F0EA30A3
:100A7000C9F08D2D9E2DBF013ED39B012F5F3F4FAF
:100A80002138310578F42130310521F020FF02C0F2
:100A90002F5F3F4FC901BF0103D38A159B0510F497
:100AA000022F02C0C501412F3197E330F10519F043
:100AB0005C01142FD9CF442311F11C01402E542E78
:100AC00069817A818B819C8134DE8823C1F08981A0
:100AD0009A81AB81BC818093BF009093C000A093AA
:100AE000C100B093C20089E860E1D3DE882039F408
:100AF000DADE89E860E0CDDE87E860E4CADE2896C9
:100B00000FB6F894DEBF0FBECDBFCF91DF911F911E
:100B10000F91FF90EF90DF90CF90BF90AF9008952E
:100B2000B39B15C07720A9F01092BF001092C000AF
:100B30001092C1001092C200609165007091660031
:100B40008091670090916800C6DE782C0895772424
:100B500073940895A82FB92F80E090E041E050EA07
:100B6000609530E009C02D9182279795879510F008
:100B700084279527305EC8F36F5FA8F30895EADFF6
:100B80008D939D930895A6E088279927AA9569F0EB
:100B90000197E1F3B299FCCFB29BFECF81E0992798
:100BA000A6B3019611F0A570D9F70895CF93CFB7EA
:100BB000CF93C395B29BE9F7B29B0BC0B29B09C020
:100BC000B29B07C0B29B05C0B29B03C0B29B01C0E1
:100BD000D3C00F92DF93C091D000DD27C952DF4F01
:100BE000012EB29B03C0DF910F90E6CF2F930F939E
:100BF0001F934F932FEF4F6F06B302FB20F95F93C4
:100C00003F9350E03BE065C016B30126502952FDEA
:100C1000C89556B3012702FB25F92F7306B3B1F02F
:100C20005027102712FB26F906B22230F0F000C040
:100C300016B3012702FB27F90126502906B22430FA
:100C4000E8F54F77206816B30000F6CF50274F7DA8
:100C5000206206B2102F000000C006B30026502903
:100C6000102712FB26F906B2E2CF4F7B06B32064B1
:100C700000C0DACF01265029157006B269F14E7F07
:100C80002160012F16B328C0002650294D7F06B2DF
:100C90002260102F29C0012650294B7F06B2246004
:100CA000012F2DC016B301265029477F2860000070
:100CB00006B22EC04F7E06B3206130C0422706B375
:100CC000499300265029102706B24FEF12FB20F956
:100CD000297F16B379F2157059F10126502906B211
:100CE000012702FB21F9237F06B371F20026502968
:100CF0003150D0F006B2102712FB22F9277E16B32E
:100D000051F201265029012702FB06B223F92F7C5C
:100D100049F2000006B3102712FB24F900265029DF
:100D200006B22F7939F270CF10E41ABF002717C02E
:100D30003B503195C31BD04010E41ABF0881033CDF
:100D4000F9F00B34E9F02091CE001981110F121344
:100D5000EDCF093651F10D3211F0013E39F7009314
:100D6000D5003F915F914F911F910F912F91DF918E
:100D70000F90CAB7C6FD1DCFCF91CFBFCF911895A9
:100D80002091D500222369F31091D300112321F57E
:100D9000343022F13093D3002093CF001091D00053
:100DA0003BE0311B3093D00019C00091D3000130DB
:100DB0009CF40AE53091AB0034FD11C00093AB0008
:100DC000C3ECD0E010C0052710E000C021C005270B
:100DD00010E0C89508BB14C03AE501C032ED032EFF
:100DE000C0E0D0E032E017B31560C29A08B317BB79
:100DF00055E020E84FEF20FF052708BB2795179502
:100E00001C3F28F700004552B0F720FF0527279523
:100E100008BB17951C3FB8F629913A9561F70A7FF0
:100E20001091D400110F08BBC250D04011F01093A4
:100E3000CE0010E41ABF046017B31A7F402F4A7F18
:100E400054E05A95F1F708BB17BB48BB8ACF85B76A
:100E5000826085BF8BB780648BBF08951F93CF934B
:100E6000DF936091D300635067FDB2C08091D000E2
:100E7000CCE0D0E0C81BD109C952DF4F8091CF0030
:100E80008D3209F093C0683009F0A0C083EC8093E4
:100E9000C3008AE58093AB001092B0008881807611
:100EA00039F0CE0167D9282F8F3F09F46EC074C086
:100EB0009A811092CC008981882321F41092CD0070
:100EC00022E05CC0853019F49093D40056C086307F
:100ED00009F044C08B81813019F482E590E004C0B0
:100EE000823041F484E690E09093D2008093D10068
:100EF00080E42DC0833069F58A81882349F48EE12E
:100F000090E09093D2008093D10080E424E023C04D
:100F1000813049F482E290E09093D2008093D10036
:100F200080E42AE118C0823049F48CE390E0909389
:100F3000D2008093D10080E426E10DC0833049F4D3
:100F400089E990E09093D2008093D10080E022E183
:100F500002C080E420E08093B0001EC0883021F4FD
:100F600021E086ED90E00CC0893019F49093D60012
:100F700004C08A3011F421E001C020E08CEC90E044
:100F80009093D2008093D10007C0888187FD2E8185
:100F900080E88093B00006C08F81882319F48E8189
:100FA000821708F0822F8093AC0010C08091B000AF
:100FB00087FF0CC0CE012EDA8F3F21F48EE18093A3
:100FC000AB0004C0882311F01092AC001092D30043
:100FD0008091AB0084FF49C08091AC008F3F09F441
:100FE00044C0182F893008F018E0811B8093AC00B2
:100FF0008091C30098E889278093C300112341F1B1
:101000002091D1003091D2008091B00086FF0DC0B8
:10101000A4ECB0E080E090E0F901E80FF91FE49162
:10102000ED9301961817C1F708C0912FD901E4EC90
:10103000F0E08D9181939150E1F71150812F90E074
:101040001F5F0196820F931F9093D2008093D1006F
:1010500084EC90E0612F93DD612F6C5F6C3019F0B0
:101060008FEF8093AC006093AB0094E186B3857002
:1010700031F49150D9F71092D4001092CE0010E0C4
:10108000992309F411E08091AF00811729F0112311
:1010900009F4E2DA1093AF00DF91CF911F91089528
:1010A0005527002480FF02C0060E571F660F771FCA
:1010B0006115710521F096958795009799F7952F01
:1010C000802D0895FF27EE27BB27AA2760FF04C0C5
:1010D000A20FB31FE41FF51F220F331F441F551F1C
:1010E000969587957795679589F70097760771F7B5
:1010F000CF01BD010895AA1BBB1B51E107C0AA1F68
:10110000BB1FA617B70710F0A61BB70B881F991FA8
:101110005A95A9F780959095BC01CD010895DC0101
:10112000CB01FC01E199FECF06C0FFBBEEBBE09A0C
:1011300031960DB20D9241505040B8F70895E199A3
:10114000FECF9FBB8EBBE09A99278DB30895DC013B
:10115000CB0102C02D9105D041505040D8F70895E1
:10116000262FE199FECF1CBA9FBB8EBB2DBB0FB6BD
:10117000F894E29AE19A0FBE01960895F894FFCF91
:10118000FFC2F5487266668603AC0D0002000400DB
:101190000801000001020300000000000000000040
:1011A00000000000000000000020000000200000FF
:1011B0000020000000200030551203500045003090
:0E11C0000046004B004F002D0030005AFF008B
:00000001FF
