:1000000045C046C268C067C066C065C064C063C002
:1000100062C061C060C05FC05EC05DC05CC0040300
:1000200009041A037700770077002E006F00620042
:100030006400650076002E00610074001603440021
:10004000470038005300410051002D0049003200A4
:100050004300160350004500300046004B004F009F
:100060002D0032002E00300012011001FF000008A8
:10007000C016DC05000101020301090212000101A2
:1000800000800A09040000000000000011241FBEC7
:10009000CFE5D1E0DEBFCDBF14BE88E10FB6F89446
:1000A00081BD11BC0FBE80E187BB18BA10E0A0E68D
:1000B000B0E0E8EFFFE002C005900D92A236B10774
:1000C000D9F710E0A2E6B0E001C01D92AB3BB1074A
:1000D000E1F703D090C700C0189564E148E750E00D
:1000E00020E030E0D901FA01162E67D780918B000D
:1000F0008F3F09F03FC08093780085E580938B00A7
:1001000086E696E6A6E8B3E080937D0090937E00B5
:10011000A0937F00B093800082EC95EFA8E4B2E753
:100120008093790090937A00A0937B00B0937C0039
:100130008CEA9DE0909382008093810080E092E0C1
:10014000909384008093830080E094E090938600F5
:100150008093850080E098E09093880080938700EA
:1001600081E090E090938A0080938900D901FA01A0
:10017000162E34D7809178008F3F09F081BF8CD63E
:10018000BA9A28E833E18CE991E00197F1F7215020
:100190003040C9F7BA9888E190E02CE00FB6F894A7
:1001A000A89581BD0FBE21BD8AD37894A8958ED322
:1001B00073D6FCCFCF93DF93EC0180916200823342
:1001C00091F0833320F4803308F43FC007C08433B8
:1001D00031F1843380F08533C1F528C06630A8F151
:1001E000CE0183D402C0643080F1688179818A8134
:1001F0009B81A3D52AC0643040F1E9E7F0E0888113
:100200009981AA81BB818093790090937A00A09311
:100210007B00B0937C0084E0A1E0B0E014C06430C7
:10022000A0F084E0A5E0B0E0FE010DC0623068F00F
:10023000E1E8F0E0888199819093820080938100C9
:1002400082E0A9E0B0E0182EC9D681E090E0DF910D
:10025000CF910895CF93DF93EC01E0E7F0E0F093C6
:100260009C00E0939B008981863330F5803308F051
:10027000A1C0843009F44DC0853060F4813009F4A8
:1002800040C08130D8F1823009F43FC0833009F09A
:10029000CBC03DC0863109F454C0873130F48F3073
:1002A000E1F1853109F0C0C039C0873109F456C089
:1002B000803209F0B9C072C08F3309F499C080341C
:1002C00080F48B3309F47EC08C3320F48A3309F038
:1002D000ABC075C08C3309F47CC08D3309F0A4C069
:1002E0007EC0813409F48AC0813408F484C080352A
:1002F00009F491C0813509F097C093C087E09FE071
:1003000026C08A818A7F87BB83C086B38EC088B3AC
:100310008CC08A818A7F88BB7BC0FFCF8091890097
:10032000882379F487B39A81929590738F7C892B77
:1003300087BB88B3909598238C8182958073982B86
:1003400098BB86B382958F7090E083709070909385
:1003500071008093700082E090E06BC0EC81E4302B
:10036000A0F4F0E0EE0FFF1FDF01A858BF4F8A8115
:100370009B81ED019C878B873B96DF01A050B040AD
:1003800082E0E858FF4F182E29D683E890E090933A
:100390009C0080939B0088E090E04BC06C818B8137
:1003A000C2D41092B7001092B8001092B900109207
:1003B000BA0021C0809362008FEF90E03AC08DE7D1
:1003C00090E00FC081E890E090939C0080939B00A8
:1003D000C2CF84E0A5E0B0E0182EEFD506C089E7D3
:1003E00090E090939C0080939B0084E090E021C07B
:1003F00064D490E01EC080918C0017C08A81A3E174
:10040000B0E0082EDFD58A818F3F11F080938B00FA
:1004100080E090E00EC08A81882311F4C49801C066
:10042000C49A86B3807201C08FEF8093700081E020
:1004300090E0DF91CF910895A82FB92F80E090E050
:1004400041E050EA60956F5F58F42D9138EF8227B4
:100450009795879510F0842795273F5FC8F3F3CFD2
:100460000895EADF8D939D930895A6E08827992744
:10047000AA9569F00197E1F3B299FCCFB29BFECF48
:1004800081E09927A6B3019611F0A570D9F70895D8
:10049000CF93CFB7CF93C395B29BE9F7B29B0BC075
:1004A000B29B09C0B29B07C0B29B05C0B29B03C000
:1004B000B29B01C0D3C00F92DF93C0919A00DD2799
:1004C000CF55DF4F012EB29B03C0DF910F90E6CFD7
:1004D0002F930F931F934F932FEF4F6F06B302FB92
:1004E00020F95F933F9350E03BE065C016B30126CF
:1004F000502952FDC89556B3012702FB25F92F73E9
:1005000006B3B1F05027102712FB26F906B22230AD
:10051000F0F000C016B3012702FB27F9012650298D
:1005200006B22430E8F54F77206816B30000F6CF06
:1005300050274F7D206206B2102F000000C006B386
:1005400000265029102712FB26F906B2E2CF4F7B76
:1005500006B3206400C0DACF01265029157006B218
:1005600069F14E7F2160012F16B328C00026502963
:100570004D7F06B22260102F29C0012650294B7FE3
:1005800006B22460012F2DC016B301265029477FE3
:100590002860000006B22EC04F7E06B3206130C036
:1005A000422706B3499300265029102706B24FEF81
:1005B00012FB20F9297F16B379F2157059F1012643
:1005C000502906B2012702FB21F9237F06B371F2FD
:1005D000002650293150D0F006B2102712FB22F924
:1005E000277E16B351F201265029012702FB06B2DD
:1005F00023F92F7C49F2000006B3102712FB24F9DF
:100600000026502906B22F7939F270CF10E41ABFB4
:10061000002717C03B503195C31BD04010E41ABFD0
:100620000881033CF9F00B34E9F02091980019811E
:10063000110F1213EDCF093651F10D3211F0013EB9
:1006400039F700939F003F915F914F911F910F9158
:100650002F91DF910F90CAB7C6FD1DCFCF91CFBFAD
:10066000CF91189520919F00222369F310919D004E
:10067000112321F5343022F130939D00209399000D
:1006800010919A003BE0311B30939A0019C0009101
:100690009D0001309CF40AE53091600034FD11C0EA
:1006A00000936000CDE8D0E010C0052710E000C046
:1006B00021C0052710E0C89508BB14C03AE501C069
:1006C00032ED032EC0E0D0E032E017B31560C29ADD
:1006D00008B317BB55E020E84FEF20FF052708BB04
:1006E000279517951C3F28F700004552B0F720FFCB
:1006F0000527279508BB17951C3FB8F629913A9511
:1007000061F70A7F10919E00110F08BBC250D040C4
:1007100011F01093980010E41ABF046017B31A7F09
:10072000402F4A7F54E05A95F1F708BB17BB48BBEE
:100730008ACFEF92FF920F931F93CF93DF9380E8BE
:10074000F82E10E0C0E0D0E0012F0F0D01BF8DDECC
:1007500029E0843392070CF4102FF6942196C830C8
:10076000D10591F7115011BF1F5F7C01C12FD0E05F
:10077000219610C07ADE8453994097FF03C090956C
:1007800081959F4F8E159F0514F411B77C0181B799
:100790008F5F81BF81B790E0C817D9075CF711BFA1
:1007A000DF91CF911F910F91FF90EF900895F894F2
:1007B000C0DF789481B7A0E0B0E0082E03D408959C
:1007C0008DE08A95F1F70895CF93DF93C2E3D0E0EF
:1007D000F7DF21978FEFCF3FD80721F481E0809397
:1007E0008C0002C0B39BF4CFDF91CF91089510929B
:1007F0008C00BB98B99AE4DFBB9AE2DF0895B99AFE
:10080000BB98DEDFB998DCDF0895B99ABB98DCDFCE
:10081000BB9AD6DF0895B998BB98D6DFBB9AD0DFD4
:100820000895B998BB98D0DF86B3BB9A90E09695AF
:100830008795817090700895FF920F931F93F82E03
:1008400010E000E8802F8F2111F4DFDF01C0E3DF2B
:100850001F5F183011F00695F5CF00918C0010E065
:10086000E0DF10928C0090E0802B912B892B19F007
:1008700081E080938C001F910F91FF9008950F935A
:100880001F9300E010E0110FCCDF182B0F5F083032
:10089000D1F7BBDF812F90E01F910F9108950F9347
:1008A0001F9300E010E0110FBCDF182B0F5F083022
:1008B000D1F7B1DF812F90E01F910F91089585B797
:1008C000826085BF8BB780648BBF08951F93CF93E1
:1008D000DF9360919D00635067FDA3C080919A00F3
:1008E000CDEAD0E0C81BD109809199008D3209F082
:1008F00086C0683009F093C083EC80938D008AE550
:1009000080936000109264008881807621F0CE018F
:10091000A1DC282F61C09A811092960089818823DA
:1009200021F41092970022E051C0853019F4909381
:100930009E004BC08630D1F58B81813019F488E65A
:1009400090E004C0823041F48AE790E090939C00EC
:1009500080939B0022E126C0833019F5992341F44E
:100960008EE190E090939C0080939B0024E01AC05D
:10097000913041F482E290E090939C0080939B0040
:100980002AE110C0923019F48CE390E004C0933057
:1009900041F482E590E090939C0080939B0026E1D7
:1009A00001C020E080E48093640016C0883021F408
:1009B00021E080EA90E00CC0893019F49093A00007
:1009C00004C08A3011F421E001C020E086E990E003
:1009D00090939C0080939B002F3F39F4888187FD82
:1009E0002E8180E88093640007C08F81882321F4E2
:1009F0008E81821708F4282F2093610010C0809107
:100A0000640087FF0CC0CE01D5DB8F3F21F48EE15F
:100A10008093600004C0882311F01092610010924E
:100A20009D008091600084FF45C0809161008F3FF0
:100A300009F440C0182F893008F018E0811B80931A
:100A4000610080918D0098E8892780938D001123A3
:100A500021F120919B0030919C008091640086FFE1
:100A60000AC0912FF901AEE8B0E084918D933196E0
:100A70009150D9F708C0912FF901AEE8B0E081910B
:100A80008D939150E1F7C90101961150810F911D8D
:100A90001F5F90939C0080939B00612F8EE890E0F5
:100AA000E0DC612F6C5F6C3019F08FEF8093610098
:100AB0006093600094E186B3857031F49150D9F76A
:100AC00010929E001092980010E0992309F411E012
:100AD00080916300811729F0112309F468DE1093D7
:100AE0006300DF91CF911F910895AF92BF92CF9293
:100AF000DF92EF92FF920F931F936C01FC016081D4
:100B00000181802F8295869586958370962F990F07
:100B1000990F9C77892B1581B481A38192810F73E2
:100B20002091790030917A0040917B0050917C00B7
:100B3000E0E0F9E2AE2EBE2EEE2EFE2E7F2F889440
:100B400020F4A20EB31EE41EF51EF794E794B794AA
:100B5000A79407959795A795B79517957A9581F7D7
:100B6000990F001FAA1CBB1CEE1CFF1C8F5F629517
:100B7000669567706C5F70E090E0E0D15E2F8894BE
:100B8000001FAA1CBB1CEE1CFF1CEE1F551FE81B00
:100B9000590B20F4E80F591F889401C00894FA9566
:100BA00079F7F6010083A182B282E3821F910F914F
:100BB000FF90EF90DF90CF90BF90AF900895CF92CD
:100BC000DF92EF92FF920F931F93A0916800A150C4
:100BD0003A2F369536952091690024502295220FA0
:100BE000207E3F71322B30936A0020916600309155
:100BF000670041E20024FF1B10F4F20F031E07946C
:100C0000F79597958795779567954A95A9F7E8E4BD
:100C1000EE24FF2487012091790030917A004091E1
:100C20007B0050917C00C72ED82EB92F8894661F68
:100C3000CC1CDD1CBB1FFF1FEE1CFF1C001F111F67
:100C4000E21AF30A040B150B30F4E20EF31E041F34
:100C5000151F889401C00894EA9549F7611DC11CCD
:100C6000D11CB11DF11D60936F00C0926E00D09237
:100C70006D00B0936C00A295AA0FAA0FA07CAF2BB9
:100C8000A0936B001F910F91FF90EF90DF90CF909A
:100C900008951F93182FABDD80918B00880FCCDD5A
:100CA00080918C00882319F080E090E004C0812FAF
:100CB000C3DD81E090E01F910895CF93DF9387E03B
:100CC000E8DF882389F093DD80918B00880F8160B5
:100CD000B3DDC0E7D0E0D3DD899380E0C537D80726
:100CE000D1F7DDDD809375008ADD80918C0088234B
:100CF00019F080E090E002C086E090E0DF91CF91B3
:100D00000895CF93DF9387E0C4DF882341F0CAE6DC
:100D1000D0E0899191DD80E0C037D807D1F76FDD51
:100D2000DF91CF9108951F93162FB3DF882311F021
:100D3000812F82DD64DD1F910895AF92BF92CF9223
:100D4000DF92EF92FF920F931F93CF93DF935B019C
:100D50006C0160937D0070937E0080937F00909380
:100D60008000609181007091820061157105A1F190
:100D70002091B7003091B8004091B9005091BA006D
:100D8000D601C501821B930BA40BB50BB7FF07C09F
:100D9000B095A095909581959F4FAF4FBF4F7C0127
:100DA0008D0124E0EE0CFF1C001F111F2A95D1F7C6
:100DB000E81AF90A0A0B1B0B80E090E09A0140E068
:100DC00050E0CED06E157F058007910728F0C60150
:100DD000B501F5DE96DF54C0A092B700B092B8001E
:100DE000C092B900D092BA00B60176956795769513
:100DF000679580E997E9CDD08B014BE0EE24FF2485
:100E0000C0E8D5E002C04830E9F04A30D9F0E42F1C
:100E1000F0E0C801BF01BDD09B012F5F3F4F2138DB
:100E2000310580F42130310521F020FF02C02F5F11
:100E30003F4FC901BF0182D08C179D0718F4F22ED5
:100E4000E42EEC0141504430F0F6EE20C9F0D0938E
:100E50006700C0936600F0926800E0926900C601E6
:100E6000B501ADDE60E189E85EDF80918C0088230A
:100E700039F447DF60E089E856DF60E487E853DF54
:100E80002FD0DF91CF911F910F91FF90EF90DF90C6
:100E9000CF90BF90AF900895B39903C010926500B2
:100EA0000895809165008823D1F41092B7001092C4
:100EB000B8001092B9001092BA0060917D00709154
:100EC0007E0080917F009091800037DF80918C00C0
:100ED00090E021E030E08227932780936500089519
:100EE00080918900882349F180917D0090917E0056
:100EF000A0917F00B0918000BC9ABD9A8091830040
:100F000090918400A817B90710F4C49808C0809184
:100F1000850090918600A817B90718F4C49AC5985F
:100F200008958091870090918800A817B90718F458
:100F3000C498C59A0895C49AC59A0895552700245F
:100F400080FF02C0060E571F660F771F61157105DF
:100F500021F096958795009799F7952F802D089504
:100F6000FF27EE27BB27AA2760FF04C0A20FB31FED
:100F7000E41FF51F220F331F441F551F96958795B9
:100F80007795679589F70097760771F7CF01BD01CF
:100F90000895AA1BBB1B51E107C0AA1FBB1FA617C0
:100FA000B70710F0A61BB70B881F991F5A95A9F712
:100FB00080959095BC01CD01089515D001921A94A9
:100FC000E1F70895E199FECFBFBBAEBB0DBA119614
:100FD0000FB6F894E29AE19A0FBE08950190F2DFFD
:100FE0001A94E1F70895E199FECFBFBBAEBBE09A3A
:080FF00011960DB20895FFCF28
:020FF8005AFF9E
:00000001FF
